{
  "contractName": "Blackjack",
  "abi": [
    {
      "constant": true,
      "inputs": [],
      "name": "cardd",
      "outputs": [
        {
          "name": "",
          "type": "uint256"
        }
      ],
      "payable": false,
      "stateMutability": "view",
      "type": "function"
    },
    {
      "constant": true,
      "inputs": [
        {
          "name": "",
          "type": "uint256"
        }
      ],
      "name": "deck",
      "outputs": [
        {
          "name": "",
          "type": "uint8"
        }
      ],
      "payable": false,
      "stateMutability": "view",
      "type": "function"
    },
    {
      "constant": true,
      "inputs": [
        {
          "name": "",
          "type": "address"
        }
      ],
      "name": "games",
      "outputs": [
        {
          "name": "playerAddress",
          "type": "address"
        },
        {
          "name": "playerPts",
          "type": "uint8"
        },
        {
          "name": "dealerPts",
          "type": "uint8"
        },
        {
          "name": "playerStand",
          "type": "bool"
        },
        {
          "name": "playerAces",
          "type": "uint8"
        },
        {
          "name": "dealerAces",
          "type": "uint8"
        },
        {
          "name": "inProgress",
          "type": "bool"
        }
      ],
      "payable": false,
      "stateMutability": "view",
      "type": "function"
    },
    {
      "constant": true,
      "inputs": [],
      "name": "cardp",
      "outputs": [
        {
          "name": "",
          "type": "uint256"
        }
      ],
      "payable": false,
      "stateMutability": "view",
      "type": "function"
    },
    {
      "inputs": [],
      "payable": false,
      "stateMutability": "nonpayable",
      "type": "constructor"
    },
    {
      "payable": true,
      "stateMutability": "payable",
      "type": "fallback"
    },
    {
      "constant": false,
      "inputs": [],
      "name": "startGame",
      "outputs": [],
      "payable": true,
      "stateMutability": "payable",
      "type": "function"
    },
    {
      "constant": false,
      "inputs": [],
      "name": "stand",
      "outputs": [],
      "payable": false,
      "stateMutability": "nonpayable",
      "type": "function"
    },
    {
      "constant": false,
      "inputs": [],
      "name": "hit",
      "outputs": [],
      "payable": false,
      "stateMutability": "nonpayable",
      "type": "function"
    },
    {
      "constant": false,
      "inputs": [
        {
          "name": "myid",
          "type": "bytes32"
        },
        {
          "name": "result",
          "type": "string"
        }
      ],
      "name": "__callback",
      "outputs": [],
      "payable": false,
      "stateMutability": "nonpayable",
      "type": "function"
    },
    {
      "constant": false,
      "inputs": [
        {
          "name": "_queryId",
          "type": "bytes32"
        },
        {
          "name": "_result",
          "type": "string"
        },
        {
          "name": "_proof",
          "type": "bytes"
        }
      ],
      "name": "__callback",
      "outputs": [],
      "payable": false,
      "stateMutability": "nonpayable",
      "type": "function"
    }
  ],
  "bytecode": "0x60806040526101a060405190810160405280600b60ff168152602001600260ff168152602001600360ff168152602001600460ff168152602001600560ff168152602001600660ff168152602001600760ff168152602001600860ff168152602001600960ff168152602001600a60ff168152602001600a60ff168152602001600a60ff168152602001600a60ff16815250600690600d620000a392919062000aa4565b50348015620000b157600080fd5b506000620000f160307f0100000000000000000000000000000000000000000000000000000000000000026200016f640100000000026401000000009004565b670de0b6b3a7640000600781905550600090505b60348160ff1610156200016857600581908060018154018082558091505090600182039060005260206000209060209182820401919006909192909190916101000a81548160ff021916908360ff16021790555050808060010191505062000105565b5062000c27565b60008060009054906101000a900473ffffffffffffffffffffffffffffffffffffffff1673ffffffffffffffffffffffffffffffffffffffff161480620001f057506000620001ee6000809054906101000a900473ffffffffffffffffffffffffffffffffffffffff1662000523640100000000026401000000009004565b145b1562000213576200021160006200052e640100000000026401000000009004565b505b6000809054906101000a900473ffffffffffffffffffffffffffffffffffffffff1673ffffffffffffffffffffffffffffffffffffffff166338cc48316040518163ffffffff167c0100000000000000000000000000000000000000000000000000000000028152600401602060405180830381600087803b1580156200029957600080fd5b505af1158015620002ae573d6000803e3d6000fd5b505050506040513d6020811015620002c557600080fd5b810190808051906020019092919050505073ffffffffffffffffffffffffffffffffffffffff16600160009054906101000a900473ffffffffffffffffffffffffffffffffffffffff1673ffffffffffffffffffffffffffffffffffffffff1614151562000431576000809054906101000a900473ffffffffffffffffffffffffffffffffffffffff1673ffffffffffffffffffffffffffffffffffffffff166338cc48316040518163ffffffff167c0100000000000000000000000000000000000000000000000000000000028152600401602060405180830381600087803b158015620003b357600080fd5b505af1158015620003c8573d6000803e3d6000fd5b505050506040513d6020811015620003df57600080fd5b8101908080519060200190929190505050600160006101000a81548173ffffffffffffffffffffffffffffffffffffffff021916908373ffffffffffffffffffffffffffffffffffffffff1602179055505b600160009054906101000a900473ffffffffffffffffffffffffffffffffffffffff1673ffffffffffffffffffffffffffffffffffffffff1663688dcfd7826040518263ffffffff167c010000000000000000000000000000000000000000000000000000000002815260040180827effffffffffffffffffffffffffffffffffffffffffffffffffffffffffffff19167effffffffffffffffffffffffffffffffffffffffffffffffffffffffffffff19168152602001915050600060405180830381600087803b1580156200050757600080fd5b505af11580156200051c573d6000803e3d6000fd5b5050505050565b6000813b9050919050565b6000806200055f731d3b2638a7cc9f2cb3d298a3da7a90b67e5506ed62000523640100000000026401000000009004565b11156200061357731d3b2638a7cc9f2cb3d298a3da7a90b67e5506ed6000806101000a81548173ffffffffffffffffffffffffffffffffffffffff021916908373ffffffffffffffffffffffffffffffffffffffff160217905550620006096040805190810160405280600b81526020017f6574685f6d61696e6e657400000000000000000000000000000000000000000081525062000a88640100000000026401000000009004565b6001905062000a83565b60006200064373c03a2615d5efaf5f49f60b7bb6583eaec212fdf162000523640100000000026401000000009004565b1115620006f75773c03a2615d5efaf5f49f60b7bb6583eaec212fdf16000806101000a81548173ffffffffffffffffffffffffffffffffffffffff021916908373ffffffffffffffffffffffffffffffffffffffff160217905550620006ed6040805190810160405280600c81526020017f6574685f726f707374656e33000000000000000000000000000000000000000081525062000a88640100000000026401000000009004565b6001905062000a83565b60006200072773b7a07bcf2ba2f2703b24c0691b5278999c59ac7e62000523640100000000026401000000009004565b1115620007db5773b7a07bcf2ba2f2703b24c0691b5278999c59ac7e6000806101000a81548173ffffffffffffffffffffffffffffffffffffffff021916908373ffffffffffffffffffffffffffffffffffffffff160217905550620007d16040805190810160405280600981526020017f6574685f6b6f76616e000000000000000000000000000000000000000000000081525062000a88640100000000026401000000009004565b6001905062000a83565b60006200080b73146500cfd35b22e4a392fe0adc06de1a1368ed4862000523640100000000026401000000009004565b1115620008bf5773146500cfd35b22e4a392fe0adc06de1a1368ed486000806101000a81548173ffffffffffffffffffffffffffffffffffffffff021916908373ffffffffffffffffffffffffffffffffffffffff160217905550620008b56040805190810160405280600b81526020017f6574685f72696e6b65627900000000000000000000000000000000000000000081525062000a88640100000000026401000000009004565b6001905062000a83565b6000620008ef736f485c8bf6fc43ea212e93bbf8ce046c7f1cb47562000523640100000000026401000000009004565b11156200095457736f485c8bf6fc43ea212e93bbf8ce046c7f1cb4756000806101000a81548173ffffffffffffffffffffffffffffffffffffffff021916908373ffffffffffffffffffffffffffffffffffffffff1602179055506001905062000a83565b6000620009847320e12a1f859b3feae5fb2a0a32c18f5a65555bbf62000523640100000000026401000000009004565b1115620009e9577320e12a1f859b3feae5fb2a0a32c18f5a65555bbf6000806101000a81548173ffffffffffffffffffffffffffffffffffffffff021916908373ffffffffffffffffffffffffffffffffffffffff1602179055506001905062000a83565b600062000a197351efaf4c8b3c9afbd5ab9f4bbc82784ab6ef8faa62000523640100000000026401000000009004565b111562000a7e577351efaf4c8b3c9afbd5ab9f4bbc82784ab6ef8faa6000806101000a81548173ffffffffffffffffffffffffffffffffffffffff021916908373ffffffffffffffffffffffffffffffffffffffff1602179055506001905062000a83565b600090505b919050565b806002908051906020019062000aa092919062000b45565b5050565b82600d601f0160209004810192821562000b325791602002820160005b8382111562000b0157835183826101000a81548160ff021916908360ff160217905550926020019260010160208160000104928301926001030262000ac1565b801562000b305782816101000a81549060ff021916905560010160208160000104928301926001030262000b01565b505b50905062000b41919062000bcc565b5090565b828054600181600116156101000203166002900490600052602060002090601f016020900481019282601f1062000b8857805160ff191683800117855562000bb9565b8280016001018555821562000bb9579182015b8281111562000bb857825182559160200191906001019062000b9b565b5b50905062000bc8919062000bff565b5090565b62000bfc91905b8082111562000bf857600081816101000a81549060ff02191690555060010162000bd3565b5090565b90565b62000c2491905b8082111562000c2057600081600090555060010162000c06565b5090565b90565b61294a8062000c376000396000f300608060405260043610610099576000357c0100000000000000000000000000000000000000000000000000000000900463ffffffff16806323818edc1461009b57806327dc297e146100c65780632ae3594a1461013d57806338bbfa501461015457806365b1dafa1461021157806379131a1914610258578063c2897b1014610325578063d65ab5f21461033c578063e606cd5614610346575b005b3480156100a757600080fd5b506100b0610371565b6040518082815260200191505060405180910390f35b3480156100d257600080fd5b5061013b6004803603810190808035600019169060200190929190803590602001908201803590602001908080601f0160208091040260200160405190810160405280939291908181526020018383808284378201915050505050509192919290505050610377565b005b34801561014957600080fd5b506101526103ba565b005b34801561016057600080fd5b5061020f6004803603810190808035600019169060200190929190803590602001908201803590602001908080601f0160208091040260200160405190810160405280939291908181526020018383808284378201915050505050509192919290803590602001908201803590602001908080601f0160208091040260200160405190810160405280939291908181526020018383808284378201915050505050509192919290505050610434565b005b34801561021d57600080fd5b5061023c60048036038101908080359060200190929190505050610f99565b604051808260ff1660ff16815260200191505060405180910390f35b34801561026457600080fd5b50610299600480360381019080803573ffffffffffffffffffffffffffffffffffffffff169060200190929190505050610fcc565b604051808873ffffffffffffffffffffffffffffffffffffffff1673ffffffffffffffffffffffffffffffffffffffff1681526020018760ff1660ff1681526020018660ff1660ff168152602001851515151581526020018460ff1660ff1681526020018360ff1660ff1681526020018215151515815260200197505050505050505060405180910390f35b34801561033157600080fd5b5061033a61107c565b005b61034461127a565b005b34801561035257600080fd5b5061035b611559565b6040518082815260200191505060405180910390f35b600b5481565b6103b6828260006040519080825280601f01601f1916602001820160405280156103b05781602001602082028038833980820191505090505b50610434565b5050565b60003390506103ca81600161155f565b6011600860008373ffffffffffffffffffffffffffffffffffffffff1673ffffffffffffffffffffffffffffffffffffffff16815260200190815260200160002060030160019054906101000a900460ff1660ff1610156104315761043081600061155f565b5b50565b60008060008060008061044561165d565b73ffffffffffffffffffffffffffffffffffffffff163373ffffffffffffffffffffffffffffffffffffffff1614151561050d576040517f08c379a000000000000000000000000000000000000000000000000000000000815260040180806020018281038252603f8152602001807f496e76616c69642063616c6c65722c20746869732066756e6374696f6e20736881526020017f6f756c642062652063616c6c6564206f6e6c79206279204f7261636c697a650081525060400191505060405180910390fd5b610516886119bb565b9550886001900494506009600086815260200190815260200160002060009054906101000a900473ffffffffffffffffffffffffffffffffffffffff16935060009250600091505b600860008573ffffffffffffffffffffffffffffffffffffffff1673ffffffffffffffffffffffffffffffffffffffff1681526020019081526020016000206001018054905082101561061e57600860008573ffffffffffffffffffffffffffffffffffffffff1673ffffffffffffffffffffffffffffffffffffffff168152602001908152602001600020600101828154811015156105fa57fe5b906000526020600020015486141561061157600192505b818060010192505061055e565b600090505b600860008573ffffffffffffffffffffffffffffffffffffffff1673ffffffffffffffffffffffffffffffffffffffff168152602001908152602001600020600201805490508110156106e357600860008573ffffffffffffffffffffffffffffffffffffffff1673ffffffffffffffffffffffffffffffffffffffff168152602001908152602001600020600201818154811015156106bf57fe5b90600052602060002001548614156106d657600192505b8080600101915050610623565b821515610f6357600a600086815260200190815260200160002060009054906101000a900460ff1615610ae357600860008573ffffffffffffffffffffffffffffffffffffffff1673ffffffffffffffffffffffffffffffffffffffff1681526020019081526020016000206001018690806001815401808255809150509060018203906000526020600020016000909192909190915055506006600d8781151561078a57fe5b06600d8110151561079757fe5b602091828204019190069054906101000a900460ff16600860008673ffffffffffffffffffffffffffffffffffffffff1673ffffffffffffffffffffffffffffffffffffffff16815260200190815260200160002060030160008282829054906101000a900460ff160192506101000a81548160ff021916908360ff1602179055506000600d8781151561082757fe5b0614156108a157600860008573ffffffffffffffffffffffffffffffffffffffff1673ffffffffffffffffffffffffffffffffffffffff168152602001908152602001600020600301600381819054906101000a900460ff168092919060010191906101000a81548160ff021916908360ff160217905550505b6015600860008673ffffffffffffffffffffffffffffffffffffffff1673ffffffffffffffffffffffffffffffffffffffff16815260200190815260200160002060030160009054906101000a900460ff1660ff1611801561098857506000600860006009600089815260200190815260200160002060009054906101000a900473ffffffffffffffffffffffffffffffffffffffff1673ffffffffffffffffffffffffffffffffffffffff1673ffffffffffffffffffffffffffffffffffffffff16815260200190815260200160002060030160039054906101000a900460ff1660ff16115b15610a6f57600a600860008673ffffffffffffffffffffffffffffffffffffffff1673ffffffffffffffffffffffffffffffffffffffff16815260200190815260200160002060030160008282829054906101000a900460ff160392506101000a81548160ff021916908360ff160217905550600860008573ffffffffffffffffffffffffffffffffffffffff1673ffffffffffffffffffffffffffffffffffffffff168152602001908152602001600020600301600381819054906101000a900460ff16809291906001900391906101000a81548160ff021916908360ff160217905550505b6015600860008673ffffffffffffffffffffffffffffffffffffffff1673ffffffffffffffffffffffffffffffffffffffff16815260200190815260200160002060030160009054906101000a900460ff1660ff161115610ad757610ad6846000806119cf565b5b85600c81905550610f5e565b600860008573ffffffffffffffffffffffffffffffffffffffff1673ffffffffffffffffffffffffffffffffffffffff1681526020019081526020016000206002018690806001815401808255809150509060018203906000526020600020016000909192909190915055506006600d87811515610b5d57fe5b06600d81101515610b6a57fe5b602091828204019190069054906101000a900460ff16600860008673ffffffffffffffffffffffffffffffffffffffff1673ffffffffffffffffffffffffffffffffffffffff16815260200190815260200160002060030160018282829054906101000a900460ff160192506101000a81548160ff021916908360ff1602179055506000600d87811515610bfa57fe5b061415610c7457600860008573ffffffffffffffffffffffffffffffffffffffff1673ffffffffffffffffffffffffffffffffffffffff168152602001908152602001600020600301600481819054906101000a900460ff168092919060010191906101000a81548160ff021916908360ff160217905550505b6015600860008673ffffffffffffffffffffffffffffffffffffffff1673ffffffffffffffffffffffffffffffffffffffff16815260200190815260200160002060030160019054906101000a900460ff1660ff16118015610d2857506000600860008673ffffffffffffffffffffffffffffffffffffffff1673ffffffffffffffffffffffffffffffffffffffff16815260200190815260200160002060030160049054906101000a900460ff1660ff16115b15610e0f57600a600860008673ffffffffffffffffffffffffffffffffffffffff1673ffffffffffffffffffffffffffffffffffffffff16815260200190815260200160002060030160018282829054906101000a900460ff160392506101000a81548160ff021916908360ff160217905550600860008573ffffffffffffffffffffffffffffffffffffffff1673ffffffffffffffffffffffffffffffffffffffff168152602001908152602001600020600301600481819054906101000a900460ff16809291906001900391906101000a81548160ff021916908360ff160217905550505b600860008573ffffffffffffffffffffffffffffffffffffffff1673ffffffffffffffffffffffffffffffffffffffff16815260200190815260200160002060030160029054906101000a900460ff168015610ebd57506011600860008673ffffffffffffffffffffffffffffffffffffffff1673ffffffffffffffffffffffffffffffffffffffff16815260200190815260200160002060030160019054906101000a900460ff1660ff16105b15610eed57610eec84600a600088815260200190815260200160002060009054906101000a900460ff1661155f565b5b6015600860008673ffffffffffffffffffffffffffffffffffffffff1673ffffffffffffffffffffffffffffffffffffffff16815260200190815260200160002060030160019054906101000a900460ff1660ff161115610f5657610f5584600160006119cf565b5b85600b819055505b610f8e565b610f8d84600a600088815260200190815260200160002060009054906101000a900460ff1661155f565b5b505050505050505050565b600581815481101515610fa857fe5b9060005260206000209060209182820401919006915054906101000a900460ff1681565b60086020528060005260406000206000915090508060000160009054906101000a900473ffffffffffffffffffffffffffffffffffffffff16908060030160009054906101000a900460ff16908060030160019054906101000a900460ff16908060030160029054906101000a900460ff16908060030160039054906101000a900460ff16908060030160049054906101000a900460ff16908060030160059054906101000a900460ff16905087565b60003390506011600860008373ffffffffffffffffffffffffffffffffffffffff1673ffffffffffffffffffffffffffffffffffffffff16815260200190815260200160002060030160019054906101000a900460ff1660ff1610156110ec576110e781600061155f565b611277565b600860008273ffffffffffffffffffffffffffffffffffffffff1673ffffffffffffffffffffffffffffffffffffffff16815260200190815260200160002060030160019054906101000a900460ff1660ff16600860008373ffffffffffffffffffffffffffffffffffffffff1673ffffffffffffffffffffffffffffffffffffffff16815260200190815260200160002060030160009054906101000a900460ff1660ff1611156111aa576111a581600160006119cf565b611276565b600860008273ffffffffffffffffffffffffffffffffffffffff1673ffffffffffffffffffffffffffffffffffffffff16815260200190815260200160002060030160019054906101000a900460ff1660ff16600860008373ffffffffffffffffffffffffffffffffffffffff1673ffffffffffffffffffffffffffffffffffffffff16815260200190815260200160002060030160009054906101000a900460ff1660ff16101561126757611262816000806119cf565b611275565b61127481600060016119cf565b5b5b5b50565b670de0b6b3a76400003414151561129057600080fd5b600860003373ffffffffffffffffffffffffffffffffffffffff1673ffffffffffffffffffffffffffffffffffffffff16815260200190815260200160002060030160059054906101000a900460ff161515156112ec57600080fd5b610120604051908101604052803373ffffffffffffffffffffffffffffffffffffffff16815260200160006040519080825280602002602001820160405280156113455781602001602082028038833980820191505090505b508152602001600060405190808252806020026020018201604052801561137b5781602001602082028038833980820191505090505b508152602001600060ff168152602001600060ff168152602001600015158152602001600060ff168152602001600060ff16815260200160011515815250600860003373ffffffffffffffffffffffffffffffffffffffff1673ffffffffffffffffffffffffffffffffffffffff16815260200190815260200160002060008201518160000160006101000a81548173ffffffffffffffffffffffffffffffffffffffff021916908373ffffffffffffffffffffffffffffffffffffffff160217905550602082015181600101908051906020019061145b92919061282c565b50604082015181600201908051906020019061147892919061282c565b5060608201518160030160006101000a81548160ff021916908360ff16021790555060808201518160030160016101000a81548160ff021916908360ff16021790555060a08201518160030160026101000a81548160ff02191690831515021790555060c08201518160030160036101000a81548160ff021916908360ff16021790555060e08201518160030160046101000a81548160ff021916908360ff1602179055506101008201518160030160056101000a81548160ff02191690831515021790555090505061154c33600061155f565b61155733600161155f565b565b600c5481565b60006115d56040805190810160405280600c81526020017f576f6c6672616d416c70686100000000000000000000000000000000000000008152506040805190810160405280601e81526020017f72616e646f6d206e756d626572206265747765656e203020616e642035310000815250611ae0565b600190049050826009600083815260200190815260200160002060006101000a81548173ffffffffffffffffffffffffffffffffffffffff021916908373ffffffffffffffffffffffffffffffffffffffff16021790555081600a600083815260200190815260200160002060006101000a81548160ff021916908315150217905550505050565b6000806000809054906101000a900473ffffffffffffffffffffffffffffffffffffffff1673ffffffffffffffffffffffffffffffffffffffff1614806116cd575060006116cb6000809054906101000a900473ffffffffffffffffffffffffffffffffffffffff16612082565b145b156116de576116dc600061208d565b505b6000809054906101000a900473ffffffffffffffffffffffffffffffffffffffff1673ffffffffffffffffffffffffffffffffffffffff166338cc48316040518163ffffffff167c0100000000000000000000000000000000000000000000000000000000028152600401602060405180830381600087803b15801561176357600080fd5b505af1158015611777573d6000803e3d6000fd5b505050506040513d602081101561178d57600080fd5b810190808051906020019092919050505073ffffffffffffffffffffffffffffffffffffffff16600160009054906101000a900473ffffffffffffffffffffffffffffffffffffffff1673ffffffffffffffffffffffffffffffffffffffff161415156118f5576000809054906101000a900473ffffffffffffffffffffffffffffffffffffffff1673ffffffffffffffffffffffffffffffffffffffff166338cc48316040518163ffffffff167c0100000000000000000000000000000000000000000000000000000000028152600401602060405180830381600087803b15801561187957600080fd5b505af115801561188d573d6000803e3d6000fd5b505050506040513d60208110156118a357600080fd5b8101908080519060200190929190505050600160006101000a81548173ffffffffffffffffffffffffffffffffffffffff021916908373ffffffffffffffffffffffffffffffffffffffff1602179055505b600160009054906101000a900473ffffffffffffffffffffffffffffffffffffffff1673ffffffffffffffffffffffffffffffffffffffff1663c281d19e6040518163ffffffff167c0100000000000000000000000000000000000000000000000000000000028152600401602060405180830381600087803b15801561197b57600080fd5b505af115801561198f573d6000803e3d6000fd5b505050506040513d60208110156119a557600080fd5b8101908080519060200190929190505050905090565b60006119c882600061251e565b9050919050565b8115611a29578273ffffffffffffffffffffffffffffffffffffffff166108fc671bc16d674ec800009081150290604051600060405180830381858888f19350505050158015611a23573d6000803e3d6000fd5b50611a80565b8015611a7f578273ffffffffffffffffffffffffffffffffffffffff166108fc670de0b6b3a76400009081150290604051600060405180830381858888f19350505050158015611a7d573d6000803e3d6000fd5b505b5b6000600860008573ffffffffffffffffffffffffffffffffffffffff1673ffffffffffffffffffffffffffffffffffffffff16815260200190815260200160002060030160056101000a81548160ff021916908315150217905550505050565b60008060008060009054906101000a900473ffffffffffffffffffffffffffffffffffffffff1673ffffffffffffffffffffffffffffffffffffffff161480611b5257506000611b506000809054906101000a900473ffffffffffffffffffffffffffffffffffffffff16612082565b145b15611b6357611b61600061208d565b505b6000809054906101000a900473ffffffffffffffffffffffffffffffffffffffff1673ffffffffffffffffffffffffffffffffffffffff166338cc48316040518163ffffffff167c0100000000000000000000000000000000000000000000000000000000028152600401602060405180830381600087803b158015611be857600080fd5b505af1158015611bfc573d6000803e3d6000fd5b505050506040513d6020811015611c1257600080fd5b810190808051906020019092919050505073ffffffffffffffffffffffffffffffffffffffff16600160009054906101000a900473ffffffffffffffffffffffffffffffffffffffff1673ffffffffffffffffffffffffffffffffffffffff16141515611d7a576000809054906101000a900473ffffffffffffffffffffffffffffffffffffffff1673ffffffffffffffffffffffffffffffffffffffff166338cc48316040518163ffffffff167c0100000000000000000000000000000000000000000000000000000000028152600401602060405180830381600087803b158015611cfe57600080fd5b505af1158015611d12573d6000803e3d6000fd5b505050506040513d6020811015611d2857600080fd5b8101908080519060200190929190505050600160006101000a81548173ffffffffffffffffffffffffffffffffffffffff021916908373ffffffffffffffffffffffffffffffffffffffff1602179055505b600160009054906101000a900473ffffffffffffffffffffffffffffffffffffffff1673ffffffffffffffffffffffffffffffffffffffff1663524f3889856040518263ffffffff167c01000000000000000000000000000000000000000000000000000000000281526004018080602001828103825283818151815260200191508051906020019080838360005b83811015611e24578082015181840152602081019050611e09565b50505050905090810190601f168015611e515780820380516001836020036101000a031916815260200191505b5092505050602060405180830381600087803b158015611e7057600080fd5b505af1158015611e84573d6000803e3d6000fd5b505050506040513d6020811015611e9a57600080fd5b8101908080519060200190929190505050905062030d403a02670de0b6b3a764000001811115611ed0576000600102915061207b565b600160009054906101000a900473ffffffffffffffffffffffffffffffffffffffff1673ffffffffffffffffffffffffffffffffffffffff1663adf59f9982600087876040518563ffffffff167c0100000000000000000000000000000000000000000000000000000000028152600401808481526020018060200180602001838103835285818151815260200191508051906020019080838360005b83811015611f88578082015181840152602081019050611f6d565b50505050905090810190601f168015611fb55780820380516001836020036101000a031916815260200191505b50838103825284818151815260200191508051906020019080838360005b83811015611fee578082015181840152602081019050611fd3565b50505050905090810190601f16801561201b5780820380516001836020036101000a031916815260200191505b50955050505050506020604051808303818588803b15801561203c57600080fd5b505af1158015612050573d6000803e3d6000fd5b50505050506040513d602081101561206757600080fd5b810190808051906020019092919050505091505b5092915050565b6000813b9050919050565b6000806120ad731d3b2638a7cc9f2cb3d298a3da7a90b67e5506ed612082565b111561214e57731d3b2638a7cc9f2cb3d298a3da7a90b67e5506ed6000806101000a81548173ffffffffffffffffffffffffffffffffffffffff021916908373ffffffffffffffffffffffffffffffffffffffff1602179055506121456040805190810160405280600b81526020017f6574685f6d61696e6e6574000000000000000000000000000000000000000000815250612812565b60019050612519565b600061216d73c03a2615d5efaf5f49f60b7bb6583eaec212fdf1612082565b111561220e5773c03a2615d5efaf5f49f60b7bb6583eaec212fdf16000806101000a81548173ffffffffffffffffffffffffffffffffffffffff021916908373ffffffffffffffffffffffffffffffffffffffff1602179055506122056040805190810160405280600c81526020017f6574685f726f707374656e330000000000000000000000000000000000000000815250612812565b60019050612519565b600061222d73b7a07bcf2ba2f2703b24c0691b5278999c59ac7e612082565b11156122ce5773b7a07bcf2ba2f2703b24c0691b5278999c59ac7e6000806101000a81548173ffffffffffffffffffffffffffffffffffffffff021916908373ffffffffffffffffffffffffffffffffffffffff1602179055506122c56040805190810160405280600981526020017f6574685f6b6f76616e0000000000000000000000000000000000000000000000815250612812565b60019050612519565b60006122ed73146500cfd35b22e4a392fe0adc06de1a1368ed48612082565b111561238e5773146500cfd35b22e4a392fe0adc06de1a1368ed486000806101000a81548173ffffffffffffffffffffffffffffffffffffffff021916908373ffffffffffffffffffffffffffffffffffffffff1602179055506123856040805190810160405280600b81526020017f6574685f72696e6b656279000000000000000000000000000000000000000000815250612812565b60019050612519565b60006123ad736f485c8bf6fc43ea212e93bbf8ce046c7f1cb475612082565b111561241057736f485c8bf6fc43ea212e93bbf8ce046c7f1cb4756000806101000a81548173ffffffffffffffffffffffffffffffffffffffff021916908373ffffffffffffffffffffffffffffffffffffffff16021790555060019050612519565b600061242f7320e12a1f859b3feae5fb2a0a32c18f5a65555bbf612082565b1115612492577320e12a1f859b3feae5fb2a0a32c18f5a65555bbf6000806101000a81548173ffffffffffffffffffffffffffffffffffffffff021916908373ffffffffffffffffffffffffffffffffffffffff16021790555060019050612519565b60006124b17351efaf4c8b3c9afbd5ab9f4bbc82784ab6ef8faa612082565b1115612514577351efaf4c8b3c9afbd5ab9f4bbc82784ab6ef8faa6000806101000a81548173ffffffffffffffffffffffffffffffffffffffff021916908373ffffffffffffffffffffffffffffffffffffffff16021790555060019050612519565b600090505b919050565b6000606060008060008693506000925060009150600090505b83518110156127f35760307f010000000000000000000000000000000000000000000000000000000000000002848281518110151561257257fe5b9060200101517f010000000000000000000000000000000000000000000000000000000000000090047f0100000000000000000000000000000000000000000000000000000000000000027effffffffffffffffffffffffffffffffffffffffffffffffffffffffffffff19161015801561268a575060397f010000000000000000000000000000000000000000000000000000000000000002848281518110151561261a57fe5b9060200101517f010000000000000000000000000000000000000000000000000000000000000090047f0100000000000000000000000000000000000000000000000000000000000000027effffffffffffffffffffffffffffffffffffffffffffffffffffffffffffff191611155b1561273b5781156126ad5760008614156126a3576127f3565b8580600190039650505b600a83029250603084828151811015156126c357fe5b9060200101517f010000000000000000000000000000000000000000000000000000000000000090047f0100000000000000000000000000000000000000000000000000000000000000027f0100000000000000000000000000000000000000000000000000000000000000900403830192506127e6565b602e7f010000000000000000000000000000000000000000000000000000000000000002848281518110151561276d57fe5b9060200101517f010000000000000000000000000000000000000000000000000000000000000090047f0100000000000000000000000000000000000000000000000000000000000000027effffffffffffffffffffffffffffffffffffffffffffffffffffffffffffff191614156127e557600191505b5b8080600101915050612537565b60008611156128055785600a0a830292505b8294505050505092915050565b8060029080519060200190612828929190612879565b5050565b828054828255906000526020600020908101928215612868579160200282015b8281111561286757825182559160200191906001019061284c565b5b50905061287591906128f9565b5090565b828054600181600116156101000203166002900490600052602060002090601f016020900481019282601f106128ba57805160ff19168380011785556128e8565b828001600101855582156128e8579182015b828111156128e75782518255916020019190600101906128cc565b5b5090506128f591906128f9565b5090565b61291b91905b808211156129175760008160009055506001016128ff565b5090565b905600a165627a7a723058209c1ae96cde1fdf1fa5d3c4d4681eef49044bbe41d57a8063aaab1fefd2f134eb0029",
  "source": "pragma solidity ^0.4.22;\r\n\r\nimport \"./usingOraclize.sol\";\r\n\r\ncontract Blackjack is usingOraclize{\r\n\r\n\t\r\n\r\n\tuint8[] public deck;\r\n\tuint8[13] cardValues = [11, 2, 3, 4, 5, 6, 7, 8, 9, 10, 10, 10, 10];\r\n\tuint private bet;\r\n\r\n\tstruct Game {\r\n\t\taddress playerAddress;\r\n\t\tuint[] playerCards;\r\n\t\tuint[] dealerCards;\r\n\t\tuint8 playerPts;\r\n\t\tuint8 dealerPts;\r\n\t\tbool playerStand;\r\n\t\tuint8 playerAces;\r\n\t\tuint8 dealerAces;\r\n\t\tbool inProgress;\r\n\t}\r\n\r\n\tmapping(address => Game) public games;\r\n\tmapping(uint => address) drawRequests;\r\n\tmapping(uint => bool) drawIsForPlayer;\r\n\r\n\tuint public cardd;\r\n\tuint public cardp;\r\n\r\n\r\n\t\r\n\r\n\tconstructor() {\r\n\t\toraclize_setProof(proofType_Ledger);\r\n\t\tbet = 1 ether;\r\n\t\tfor (uint8 i = 0; i < 52; i++) {\r\n\t\t\tdeck.push(i);\r\n\t\t}\r\n    }\r\n\r\n\tfunction startGame() external payable {\r\n\t\trequire(msg.value == 1 ether);\r\n\t\trequire(!games[msg.sender].inProgress);\r\n\t\tgames[msg.sender] = Game(msg.sender, new uint[](0), new uint[](0), 0, 0, false, 0, 0, true);\r\n\t\tdrawCard(msg.sender, false); \r\n\t\tdrawCard(msg.sender, true); \r\n\t}\r\n\r\n\tfunction drawCard(address _playerAddress, bool _drawIsForPlayer) private constant {\r\n\t\tuint drawId = uint(oraclize_query(\"WolframAlpha\", \"random number between 0 and 51\"));\r\n\t\tdrawRequests[drawId] = _playerAddress;\r\n\t\tdrawIsForPlayer[drawId] = _drawIsForPlayer;\r\n\t}\r\n\r\n\tfunction stand() public {\r\n\t\taddress _playerAddress = msg.sender;\r\n\t\tif (games[_playerAddress].dealerPts < 17) {\r\n\t\t\tdrawCard(_playerAddress, false);\r\n\t\t\t//player wins\r\n\t\t} else if (games[_playerAddress].playerPts > games[_playerAddress].dealerPts) {\r\n\t\t\tresolveGame(_playerAddress, true, false);\r\n\t\t\t//dealer wins\r\n\t\t} else if (games[_playerAddress].playerPts < games[_playerAddress].dealerPts) {\r\n\t\t\tresolveGame(_playerAddress, false, false);\r\n\t\t\t//tie\r\n\t\t} else {\r\n\t\t\tresolveGame(_playerAddress, false, true);\r\n\t\t}\r\n\t}\r\n\r\n\tfunction hit() public {\r\n\t\taddress _playerAddress = msg.sender;\r\n\t\tdrawCard(_playerAddress, true);\r\n\t\tif (games[_playerAddress].dealerPts < 17) {\r\n\t\t\tdrawCard(_playerAddress, false);\r\n\t\t}\r\n\t}\r\n\r\n\tfunction () external payable{\r\n\t}\r\n\r\n\tfunction resolveGame(address _playerAddress, bool playerWins, bool isDraw) private {\r\n\r\n\t\tif (playerWins) {\r\n\t\t\t_playerAddress.transfer(2 ether);\r\n\t\t} else if (isDraw) {\r\n\t\t\t_playerAddress.transfer(1 ether);\r\n\t\t}\r\n\r\n\t\tgames[_playerAddress].inProgress = false;\r\n\t}\r\n\r\n\tfunction __callback(bytes32 _queryId, string _result, bytes _proof) public{\r\n\t\tif (msg.sender != oraclize_cbAddress()) {\r\n\t\t\trevert(\"Invalid caller, this function should be called only by Oraclize\");\r\n\t\t}\r\n        uint card = parseInt(_result);\r\n        uint qId = uint(_queryId);\r\n\r\n        address _playerAddress = drawRequests[qId];\r\n\r\n        bool cardAlreadyDrawn = false;\r\n        //check player cards\r\n        for (uint i = 0; i < games[_playerAddress].playerCards.length; i++) {\r\n        \tif (card == games[_playerAddress].playerCards[i]) {\r\n        \t\tcardAlreadyDrawn = true;\r\n        \t}\r\n        }\r\n        //check dealer cards\r\n        for (uint j = 0; j < games[_playerAddress].dealerCards.length; j++) {\r\n        \tif (card == games[_playerAddress].dealerCards[j]) {\r\n        \t\tcardAlreadyDrawn = true;\r\n        \t}\r\n        }\r\n\r\n        if (!cardAlreadyDrawn) {\r\n\t        if (drawIsForPlayer[qId]) {\r\n\t        \tgames[_playerAddress].playerCards.push(card);\r\n\t        \tgames[_playerAddress].playerPts += cardValues[card % 13];\r\n\r\n\t        \tif (card % 13 == 0) {\r\n\t        \t\tgames[_playerAddress].playerAces++;\r\n\t        \t}\r\n\r\n\t        \tif (games[_playerAddress].playerPts > 21 && games[drawRequests[qId]].playerAces > 0) {\r\n\t        \t\tgames[_playerAddress].playerPts -= 10;\r\n\t        \t\tgames[_playerAddress].playerAces--;\r\n\t        \t}\r\n\r\n\t        \tif (games[_playerAddress].playerPts > 21) {\r\n\t        \t\tresolveGame(_playerAddress, false, false);\r\n\t        \t}\r\n\t        \tcardp = card;\r\n\t        } else {\r\n\t        \tgames[_playerAddress].dealerCards.push(card);\r\n\t        \tgames[_playerAddress].dealerPts += cardValues[card % 13];\r\n\r\n\t        \tif (card % 13 == 0) {\r\n\t        \t\tgames[_playerAddress].dealerAces++;\r\n\t        \t}\r\n\r\n\t        \tif (games[_playerAddress].dealerPts > 21 && games[_playerAddress].dealerAces > 0) {\r\n\t        \t\tgames[_playerAddress].dealerPts -= 10;\r\n\t        \t\tgames[_playerAddress].dealerAces--;\r\n\t        \t}\r\n\t        \t//if player stands dealer will draw until he goes over 17\r\n\t        \tif (games[_playerAddress].playerStand && games[_playerAddress].dealerPts < 17) {\r\n\t        \t\tdrawCard(_playerAddress, drawIsForPlayer[qId]);\r\n\t        \t}\r\n\r\n\t        \tif (games[_playerAddress].dealerPts > 21) {\r\n\t        \t\tresolveGame(_playerAddress, true, false);\r\n\t        \t}\r\n\r\n\t        \tcardd = card;\r\n\t        }\r\n\t    } else {\r\n\t    \tdrawCard(_playerAddress, drawIsForPlayer[qId]);\r\n\t    }\r\n   }\r\n}\r\n\r\n\r\n\r\n//Blackjack.deployed().then(function(i){app = i})\r\n\r\n//Blackjack.deployed().then(c => c.send(web3.toWei(1, \"ether\"), {from: web3.eth.accounts[1]}).then(tx => {console.log(tx.tx); tx.logs.length && console.log(tx.logs[0].event, tx.logs[0].args)}))\r\n\r\n//Blackjack.deployed().then(c => c.send(web3.toWei(5, \"ether\"), {from: web3.eth.accounts[0]}).then(tx => {}))\r\n\r\n//app.startGame({from:web3.eth.accounts[0], value: web3.toWei(1, \"ether\")});\r\n\r\n//app.hit({from: web3.eth.accounts[0]})\r\n\r\n//app.hit({from})\r\n\r\n//web3.eth.getBalance(web3.eth.accounts[0])\r\n\r\n//app.stand({from: web3.eth.accounts[0]})\r\n\r\n//app.games(web3.eth.accounts[0])\r\n\r\n",
  "sourcePath": "E:\\ethereum\\blackjack\\contracts\\Blackjack.sol",
  "compiler": {
    "name": "solc",
    "version": "0.4.23+commit.124ca40d.Emscripten.clang"
  },
  "schemaVersion": "2.0.0",
  "updatedAt": "2018-04-28T22:26:11.503Z"
}