{
  "contractName": "Blackjack",
  "abi": [
    {
      "constant": true,
      "inputs": [
        {
          "name": "",
          "type": "uint256"
        }
      ],
      "name": "deck",
      "outputs": [
        {
          "name": "",
          "type": "uint8"
        }
      ],
      "payable": false,
      "stateMutability": "view",
      "type": "function"
    },
    {
      "constant": true,
      "inputs": [
        {
          "name": "",
          "type": "address"
        }
      ],
      "name": "games",
      "outputs": [
        {
          "name": "gameId",
          "type": "uint256"
        },
        {
          "name": "playerAddress",
          "type": "address"
        },
        {
          "name": "playerPts",
          "type": "uint8"
        },
        {
          "name": "dealerPts",
          "type": "uint8"
        },
        {
          "name": "playerStand",
          "type": "bool"
        },
        {
          "name": "playerAces",
          "type": "uint8"
        },
        {
          "name": "dealerAces",
          "type": "uint8"
        },
        {
          "name": "inProgress",
          "type": "bool"
        },
        {
          "name": "firstDealDone",
          "type": "bool"
        },
        {
          "name": "cardsCount",
          "type": "uint256"
        }
      ],
      "payable": false,
      "stateMutability": "view",
      "type": "function"
    },
    {
      "inputs": [],
      "payable": false,
      "stateMutability": "nonpayable",
      "type": "constructor"
    },
    {
      "payable": true,
      "stateMutability": "payable",
      "type": "fallback"
    },
    {
      "anonymous": false,
      "inputs": [
        {
          "indexed": false,
          "name": "gameId",
          "type": "address"
        },
        {
          "indexed": false,
          "name": "card",
          "type": "uint256"
        },
        {
          "indexed": false,
          "name": "forPlayer",
          "type": "bool"
        }
      ],
      "name": "cardDrawn",
      "type": "event"
    },
    {
      "anonymous": false,
      "inputs": [
        {
          "indexed": false,
          "name": "gameId",
          "type": "uint256"
        }
      ],
      "name": "newGame",
      "type": "event"
    },
    {
      "anonymous": false,
      "inputs": [
        {
          "indexed": false,
          "name": "gameId",
          "type": "uint256"
        },
        {
          "indexed": false,
          "name": "playerWon",
          "type": "bool"
        },
        {
          "indexed": false,
          "name": "isDraw",
          "type": "bool"
        }
      ],
      "name": "gameEnd",
      "type": "event"
    },
    {
      "constant": false,
      "inputs": [],
      "name": "startGame",
      "outputs": [],
      "payable": true,
      "stateMutability": "payable",
      "type": "function"
    },
    {
      "constant": false,
      "inputs": [],
      "name": "stand",
      "outputs": [],
      "payable": false,
      "stateMutability": "nonpayable",
      "type": "function"
    },
    {
      "constant": false,
      "inputs": [],
      "name": "hit",
      "outputs": [],
      "payable": false,
      "stateMutability": "nonpayable",
      "type": "function"
    },
    {
      "constant": false,
      "inputs": [
        {
          "name": "myid",
          "type": "bytes32"
        },
        {
          "name": "result",
          "type": "string"
        }
      ],
      "name": "__callback",
      "outputs": [],
      "payable": false,
      "stateMutability": "nonpayable",
      "type": "function"
    },
    {
      "constant": false,
      "inputs": [
        {
          "name": "_queryId",
          "type": "bytes32"
        },
        {
          "name": "_result",
          "type": "string"
        },
        {
          "name": "_proof",
          "type": "bytes"
        }
      ],
      "name": "__callback",
      "outputs": [],
      "payable": false,
      "stateMutability": "nonpayable",
      "type": "function"
    }
  ],
  "bytecode": "0x60806040526101a060405190810160405280600b60ff168152602001600260ff168152602001600360ff168152602001600460ff168152602001600560ff168152602001600660ff168152602001600760ff168152602001600860ff168152602001600960ff168152602001600a60ff168152602001600a60ff168152602001600a60ff168152602001600a60ff16815250600690600d620000a392919062000aa9565b506000600855348015620000b657600080fd5b506000620000f660307f01000000000000000000000000000000000000000000000000000000000000000262000174640100000000026401000000009004565b670de0b6b3a7640000600781905550600090505b60348160ff1610156200016d57600581908060018154018082558091505090600182039060005260206000209060209182820401919006909192909190916101000a81548160ff021916908360ff1602179055505080806001019150506200010a565b5062000c2c565b60008060009054906101000a900473ffffffffffffffffffffffffffffffffffffffff1673ffffffffffffffffffffffffffffffffffffffff161480620001f557506000620001f36000809054906101000a900473ffffffffffffffffffffffffffffffffffffffff1662000528640100000000026401000000009004565b145b15620002185762000216600062000533640100000000026401000000009004565b505b6000809054906101000a900473ffffffffffffffffffffffffffffffffffffffff1673ffffffffffffffffffffffffffffffffffffffff166338cc48316040518163ffffffff167c0100000000000000000000000000000000000000000000000000000000028152600401602060405180830381600087803b1580156200029e57600080fd5b505af1158015620002b3573d6000803e3d6000fd5b505050506040513d6020811015620002ca57600080fd5b810190808051906020019092919050505073ffffffffffffffffffffffffffffffffffffffff16600160009054906101000a900473ffffffffffffffffffffffffffffffffffffffff1673ffffffffffffffffffffffffffffffffffffffff1614151562000436576000809054906101000a900473ffffffffffffffffffffffffffffffffffffffff1673ffffffffffffffffffffffffffffffffffffffff166338cc48316040518163ffffffff167c0100000000000000000000000000000000000000000000000000000000028152600401602060405180830381600087803b158015620003b857600080fd5b505af1158015620003cd573d6000803e3d6000fd5b505050506040513d6020811015620003e457600080fd5b8101908080519060200190929190505050600160006101000a81548173ffffffffffffffffffffffffffffffffffffffff021916908373ffffffffffffffffffffffffffffffffffffffff1602179055505b600160009054906101000a900473ffffffffffffffffffffffffffffffffffffffff1673ffffffffffffffffffffffffffffffffffffffff1663688dcfd7826040518263ffffffff167c010000000000000000000000000000000000000000000000000000000002815260040180827effffffffffffffffffffffffffffffffffffffffffffffffffffffffffffff19167effffffffffffffffffffffffffffffffffffffffffffffffffffffffffffff19168152602001915050600060405180830381600087803b1580156200050c57600080fd5b505af115801562000521573d6000803e3d6000fd5b5050505050565b6000813b9050919050565b60008062000564731d3b2638a7cc9f2cb3d298a3da7a90b67e5506ed62000528640100000000026401000000009004565b11156200061857731d3b2638a7cc9f2cb3d298a3da7a90b67e5506ed6000806101000a81548173ffffffffffffffffffffffffffffffffffffffff021916908373ffffffffffffffffffffffffffffffffffffffff1602179055506200060e6040805190810160405280600b81526020017f6574685f6d61696e6e657400000000000000000000000000000000000000000081525062000a8d640100000000026401000000009004565b6001905062000a88565b60006200064873c03a2615d5efaf5f49f60b7bb6583eaec212fdf162000528640100000000026401000000009004565b1115620006fc5773c03a2615d5efaf5f49f60b7bb6583eaec212fdf16000806101000a81548173ffffffffffffffffffffffffffffffffffffffff021916908373ffffffffffffffffffffffffffffffffffffffff160217905550620006f26040805190810160405280600c81526020017f6574685f726f707374656e33000000000000000000000000000000000000000081525062000a8d640100000000026401000000009004565b6001905062000a88565b60006200072c73b7a07bcf2ba2f2703b24c0691b5278999c59ac7e62000528640100000000026401000000009004565b1115620007e05773b7a07bcf2ba2f2703b24c0691b5278999c59ac7e6000806101000a81548173ffffffffffffffffffffffffffffffffffffffff021916908373ffffffffffffffffffffffffffffffffffffffff160217905550620007d66040805190810160405280600981526020017f6574685f6b6f76616e000000000000000000000000000000000000000000000081525062000a8d640100000000026401000000009004565b6001905062000a88565b60006200081073146500cfd35b22e4a392fe0adc06de1a1368ed4862000528640100000000026401000000009004565b1115620008c45773146500cfd35b22e4a392fe0adc06de1a1368ed486000806101000a81548173ffffffffffffffffffffffffffffffffffffffff021916908373ffffffffffffffffffffffffffffffffffffffff160217905550620008ba6040805190810160405280600b81526020017f6574685f72696e6b65627900000000000000000000000000000000000000000081525062000a8d640100000000026401000000009004565b6001905062000a88565b6000620008f4736f485c8bf6fc43ea212e93bbf8ce046c7f1cb47562000528640100000000026401000000009004565b11156200095957736f485c8bf6fc43ea212e93bbf8ce046c7f1cb4756000806101000a81548173ffffffffffffffffffffffffffffffffffffffff021916908373ffffffffffffffffffffffffffffffffffffffff1602179055506001905062000a88565b6000620009897320e12a1f859b3feae5fb2a0a32c18f5a65555bbf62000528640100000000026401000000009004565b1115620009ee577320e12a1f859b3feae5fb2a0a32c18f5a65555bbf6000806101000a81548173ffffffffffffffffffffffffffffffffffffffff021916908373ffffffffffffffffffffffffffffffffffffffff1602179055506001905062000a88565b600062000a1e7351efaf4c8b3c9afbd5ab9f4bbc82784ab6ef8faa62000528640100000000026401000000009004565b111562000a83577351efaf4c8b3c9afbd5ab9f4bbc82784ab6ef8faa6000806101000a81548173ffffffffffffffffffffffffffffffffffffffff021916908373ffffffffffffffffffffffffffffffffffffffff1602179055506001905062000a88565b600090505b919050565b806002908051906020019062000aa592919062000b4a565b5050565b82600d601f0160209004810192821562000b375791602002820160005b8382111562000b0657835183826101000a81548160ff021916908360ff160217905550926020019260010160208160000104928301926001030262000ac6565b801562000b355782816101000a81549060ff021916905560010160208160000104928301926001030262000b06565b505b50905062000b46919062000bd1565b5090565b828054600181600116156101000203166002900490600052602060002090601f016020900481019282601f1062000b8d57805160ff191683800117855562000bbe565b8280016001018555821562000bbe579182015b8281111562000bbd57825182559160200191906001019062000ba0565b5b50905062000bcd919062000c04565b5090565b62000c0191905b8082111562000bfd57600081816101000a81549060ff02191690555060010162000bd8565b5090565b90565b62000c2991905b8082111562000c2557600081600090555060010162000c0b565b5090565b90565b61305f8062000c3c6000396000f300608060405260043610610083576000357c0100000000000000000000000000000000000000000000000000000000900463ffffffff16806327dc297e146100855780632ae3594a146100fc57806338bbfa501461011357806365b1dafa146101d057806379131a1914610217578063c2897b10146102fd578063d65ab5f214610314575b005b34801561009157600080fd5b506100fa6004803603810190808035600019169060200190929190803590602001908201803590602001908080601f016020809104026020016040519081016040528093929190818152602001838380828437820191505050505050919291929050505061031e565b005b34801561010857600080fd5b50610111610361565b005b34801561011f57600080fd5b506101ce6004803603810190808035600019169060200190929190803590602001908201803590602001908080601f0160208091040260200160405190810160405280939291908181526020018383808284378201915050505050509192919290803590602001908201803590602001908080601f01602080910402602001604051908101604052809392919081815260200183838082843782019150505050505091929192905050506103cf565b005b3480156101dc57600080fd5b506101fb6004803603810190808035906020019092919050505061145e565b604051808260ff1660ff16815260200191505060405180910390f35b34801561022357600080fd5b50610258600480360381019080803573ffffffffffffffffffffffffffffffffffffffff169060200190929190505050611491565b604051808b81526020018a73ffffffffffffffffffffffffffffffffffffffff1673ffffffffffffffffffffffffffffffffffffffff1681526020018960ff1660ff1681526020018860ff1660ff168152602001871515151581526020018660ff1660ff1681526020018560ff1660ff16815260200184151515158152602001831515151581526020018281526020019a505050505050505050505060405180910390f35b34801561030957600080fd5b50610312611560565b005b61031c611814565b005b61035d828260006040519080825280601f01601f1916602001820160405280156103575781602001602082028038833980820191505090505b506103cf565b5050565b6000339050600960008273ffffffffffffffffffffffffffffffffffffffff1673ffffffffffffffffffffffffffffffffffffffff16815260200190815260200160002060040160059054906101000a900460ff1615156103c157600080fd5b6103cc816001611be3565b50565b6000806000806000806103e0611ce1565b73ffffffffffffffffffffffffffffffffffffffff163373ffffffffffffffffffffffffffffffffffffffff161415156104a8576040517f08c379a000000000000000000000000000000000000000000000000000000000815260040180806020018281038252603f8152602001807f496e76616c69642063616c6c65722c20746869732066756e6374696f6e20736881526020017f6f756c642062652063616c6c6564206f6e6c79206279204f7261636c697a650081525060400191505060405180910390fd5b6104b18861203f565b955088600190049450600a600086815260200190815260200160002060009054906101000a900473ffffffffffffffffffffffffffffffffffffffff169350600960008573ffffffffffffffffffffffffffffffffffffffff1673ffffffffffffffffffffffffffffffffffffffff16815260200190815260200160002060040160059054906101000a900460ff16156114535760009250600091505b600960008573ffffffffffffffffffffffffffffffffffffffff1673ffffffffffffffffffffffffffffffffffffffff1681526020019081526020016000206002018054905082101561060e57600960008573ffffffffffffffffffffffffffffffffffffffff1673ffffffffffffffffffffffffffffffffffffffff168152602001908152602001600020600201828154811015156105ea57fe5b906000526020600020015486141561060157600192505b818060010192505061054e565b600090505b600960008573ffffffffffffffffffffffffffffffffffffffff1673ffffffffffffffffffffffffffffffffffffffff168152602001908152602001600020600301805490508110156106d357600960008573ffffffffffffffffffffffffffffffffffffffff1673ffffffffffffffffffffffffffffffffffffffff168152602001908152602001600020600301818154811015156106af57fe5b90600052602060002001548614156106c657600192505b8080600101915050610613565b82151561142757600960008573ffffffffffffffffffffffffffffffffffffffff1673ffffffffffffffffffffffffffffffffffffffff16815260200190815260200160002060050160008154809291906001019190505550600b600086815260200190815260200160002060009054906101000a900460ff1615610cc857600960008573ffffffffffffffffffffffffffffffffffffffff1673ffffffffffffffffffffffffffffffffffffffff1681526020019081526020016000206002018690806001815401808255809150509060018203906000526020600020016000909192909190915055506006600d878115156107cc57fe5b06600d811015156107d957fe5b602091828204019190069054906101000a900460ff16600960008673ffffffffffffffffffffffffffffffffffffffff1673ffffffffffffffffffffffffffffffffffffffff16815260200190815260200160002060040160008282829054906101000a900460ff160192506101000a81548160ff021916908360ff1602179055506000600d8781151561086957fe5b0614156108e357600960008573ffffffffffffffffffffffffffffffffffffffff1673ffffffffffffffffffffffffffffffffffffffff168152602001908152602001600020600401600381819054906101000a900460ff168092919060010191906101000a81548160ff021916908360ff160217905550505b6015600960008673ffffffffffffffffffffffffffffffffffffffff1673ffffffffffffffffffffffffffffffffffffffff16815260200190815260200160002060040160009054906101000a900460ff1660ff161180156109ca5750600060096000600a600089815260200190815260200160002060009054906101000a900473ffffffffffffffffffffffffffffffffffffffff1673ffffffffffffffffffffffffffffffffffffffff1673ffffffffffffffffffffffffffffffffffffffff16815260200190815260200160002060040160039054906101000a900460ff1660ff16115b15610ab157600a600960008673ffffffffffffffffffffffffffffffffffffffff1673ffffffffffffffffffffffffffffffffffffffff16815260200190815260200160002060040160008282829054906101000a900460ff160392506101000a81548160ff021916908360ff160217905550600960008573ffffffffffffffffffffffffffffffffffffffff1673ffffffffffffffffffffffffffffffffffffffff168152602001908152602001600020600401600381819054906101000a900460ff16809291906001900391906101000a81548160ff021916908360ff160217905550505b7f0752f542c207d61787fd25394e818eaf7cfcef43381f74ba0acc11b299e10a6284876001604051808473ffffffffffffffffffffffffffffffffffffffff1673ffffffffffffffffffffffffffffffffffffffff16815260200183815260200182151515158152602001935050505060405180910390a16015600960008673ffffffffffffffffffffffffffffffffffffffff1673ffffffffffffffffffffffffffffffffffffffff16815260200190815260200160002060040160009054906101000a900460ff1660ff161115610b9557610b9084600080612053565b610cc3565b6015600960008673ffffffffffffffffffffffffffffffffffffffff1673ffffffffffffffffffffffffffffffffffffffff16815260200190815260200160002060040160009054906101000a900460ff1660ff161415610c0257610bfd8460016000612053565b610cc2565b6011600960008673ffffffffffffffffffffffffffffffffffffffff1673ffffffffffffffffffffffffffffffffffffffff16815260200190815260200160002060040160019054906101000a900460ff1660ff16108015610cb05750600960008573ffffffffffffffffffffffffffffffffffffffff1673ffffffffffffffffffffffffffffffffffffffff16815260200190815260200160002060040160069054906101000a900460ff165b15610cc157610cc0846000611be3565b5b5b5b61137b565b600960008573ffffffffffffffffffffffffffffffffffffffff1673ffffffffffffffffffffffffffffffffffffffff1681526020019081526020016000206003018690806001815401808255809150509060018203906000526020600020016000909192909190915055506006600d87811515610d4257fe5b06600d81101515610d4f57fe5b602091828204019190069054906101000a900460ff16600960008673ffffffffffffffffffffffffffffffffffffffff1673ffffffffffffffffffffffffffffffffffffffff16815260200190815260200160002060040160018282829054906101000a900460ff160192506101000a81548160ff021916908360ff1602179055506000600d87811515610ddf57fe5b061415610e5957600960008573ffffffffffffffffffffffffffffffffffffffff1673ffffffffffffffffffffffffffffffffffffffff168152602001908152602001600020600401600481819054906101000a900460ff168092919060010191906101000a81548160ff021916908360ff160217905550505b6015600960008673ffffffffffffffffffffffffffffffffffffffff1673ffffffffffffffffffffffffffffffffffffffff16815260200190815260200160002060040160019054906101000a900460ff1660ff16118015610f0d57506000600960008673ffffffffffffffffffffffffffffffffffffffff1673ffffffffffffffffffffffffffffffffffffffff16815260200190815260200160002060040160049054906101000a900460ff1660ff16115b15610ff457600a600960008673ffffffffffffffffffffffffffffffffffffffff1673ffffffffffffffffffffffffffffffffffffffff16815260200190815260200160002060040160018282829054906101000a900460ff160392506101000a81548160ff021916908360ff160217905550600960008573ffffffffffffffffffffffffffffffffffffffff1673ffffffffffffffffffffffffffffffffffffffff168152602001908152602001600020600401600481819054906101000a900460ff16809291906001900391906101000a81548160ff021916908360ff160217905550505b7f0752f542c207d61787fd25394e818eaf7cfcef43381f74ba0acc11b299e10a6284876000604051808473ffffffffffffffffffffffffffffffffffffffff1673ffffffffffffffffffffffffffffffffffffffff16815260200183815260200182151515158152602001935050505060405180910390a16015600960008673ffffffffffffffffffffffffffffffffffffffff1673ffffffffffffffffffffffffffffffffffffffff16815260200190815260200160002060040160019054906101000a900460ff1660ff1611156110d9576110d48460016000612053565b611142565b6015600960008673ffffffffffffffffffffffffffffffffffffffff1673ffffffffffffffffffffffffffffffffffffffff16815260200190815260200160002060040160019054906101000a900460ff1660ff1614156111415761114084600080612053565b5b5b600960008573ffffffffffffffffffffffffffffffffffffffff1673ffffffffffffffffffffffffffffffffffffffff16815260200190815260200160002060040160029054906101000a900460ff161561137a576011600960008673ffffffffffffffffffffffffffffffffffffffff1673ffffffffffffffffffffffffffffffffffffffff16815260200190815260200160002060040160019054906101000a900460ff1660ff1610156112215761121c84600b600088815260200190815260200160002060009054906101000a900460ff16611be3565b611379565b61137884600960008773ffffffffffffffffffffffffffffffffffffffff1673ffffffffffffffffffffffffffffffffffffffff16815260200190815260200160002060040160009054906101000a900460ff1660ff16600960008873ffffffffffffffffffffffffffffffffffffffff1673ffffffffffffffffffffffffffffffffffffffff16815260200190815260200160002060040160019054906101000a900460ff1660ff1610600960008873ffffffffffffffffffffffffffffffffffffffff1673ffffffffffffffffffffffffffffffffffffffff16815260200190815260200160002060040160019054906101000a900460ff1660ff16600960008973ffffffffffffffffffffffffffffffffffffffff1673ffffffffffffffffffffffffffffffffffffffff16815260200190815260200160002060040160009054906101000a900460ff1660ff1614612053565b5b5b5b6004600960008673ffffffffffffffffffffffffffffffffffffffff1673ffffffffffffffffffffffffffffffffffffffff168152602001908152602001600020600501541415611422576001600960008673ffffffffffffffffffffffffffffffffffffffff1673ffffffffffffffffffffffffffffffffffffffff16815260200190815260200160002060040160066101000a81548160ff0219169083151502179055505b611452565b61145184600b600088815260200190815260200160002060009054906101000a900460ff16611be3565b5b5b505050505050505050565b60058181548110151561146d57fe5b9060005260206000209060209182820401919006915054906101000a900460ff1681565b60096020528060005260406000206000915090508060000154908060010160009054906101000a900473ffffffffffffffffffffffffffffffffffffffff16908060040160009054906101000a900460ff16908060040160019054906101000a900460ff16908060040160029054906101000a900460ff16908060040160039054906101000a900460ff16908060040160049054906101000a900460ff16908060040160059054906101000a900460ff16908060040160069054906101000a900460ff1690806005015490508a565b6000339050600960008273ffffffffffffffffffffffffffffffffffffffff1673ffffffffffffffffffffffffffffffffffffffff16815260200190815260200160002060040160059054906101000a900460ff1615156115c057600080fd5b6001600960008373ffffffffffffffffffffffffffffffffffffffff1673ffffffffffffffffffffffffffffffffffffffff16815260200190815260200160002060040160026101000a81548160ff0219169083151502179055506011600960008373ffffffffffffffffffffffffffffffffffffffff1673ffffffffffffffffffffffffffffffffffffffff16815260200190815260200160002060040160019054906101000a900460ff1660ff16101561168657611681816000611be3565b611811565b600960008273ffffffffffffffffffffffffffffffffffffffff1673ffffffffffffffffffffffffffffffffffffffff16815260200190815260200160002060040160019054906101000a900460ff1660ff16600960008373ffffffffffffffffffffffffffffffffffffffff1673ffffffffffffffffffffffffffffffffffffffff16815260200190815260200160002060040160009054906101000a900460ff1660ff1611156117445761173f8160016000612053565b611810565b600960008273ffffffffffffffffffffffffffffffffffffffff1673ffffffffffffffffffffffffffffffffffffffff16815260200190815260200160002060040160019054906101000a900460ff1660ff16600960008373ffffffffffffffffffffffffffffffffffffffff1673ffffffffffffffffffffffffffffffffffffffff16815260200190815260200160002060040160009054906101000a900460ff1660ff161015611801576117fc81600080612053565b61180f565b61180e8160006001612053565b5b5b5b50565b670de0b6b3a76400003414151561182a57600080fd5b600960003373ffffffffffffffffffffffffffffffffffffffff1673ffffffffffffffffffffffffffffffffffffffff16815260200190815260200160002060040160059054906101000a900460ff1615151561188657600080fd5b6101806040519081016040528060085481526020013373ffffffffffffffffffffffffffffffffffffffff16815260200160006040519080825280602002602001820160405280156118e75781602001602082028038833980820191505090505b508152602001600060405190808252806020026020018201604052801561191d5781602001602082028038833980820191505090505b508152602001600060ff168152602001600060ff168152602001600015158152602001600060ff168152602001600060ff1681526020016001151581526020016000151581526020016000815250600960003373ffffffffffffffffffffffffffffffffffffffff1673ffffffffffffffffffffffffffffffffffffffff1681526020019081526020016000206000820151816000015560208201518160010160006101000a81548173ffffffffffffffffffffffffffffffffffffffff021916908373ffffffffffffffffffffffffffffffffffffffff1602179055506040820151816002019080519060200190611a17929190612f41565b506060820151816003019080519060200190611a34929190612f41565b5060808201518160040160006101000a81548160ff021916908360ff16021790555060a08201518160040160016101000a81548160ff021916908360ff16021790555060c08201518160040160026101000a81548160ff02191690831515021790555060e08201518160040160036101000a81548160ff021916908360ff1602179055506101008201518160040160046101000a81548160ff021916908360ff1602179055506101208201518160040160056101000a81548160ff0219169083151502179055506101408201518160040160066101000a81548160ff0219169083151502179055506101608201518160050155905050600860008154809291906001019190505550611b47336001611be3565b611b52336000611be3565b611b5d336001611be3565b611b68336000611be3565b7fcde9ef7823fc51150ee879602f2d118c1d72c2b8dfcb78b598c138a039a6a6ec600960003373ffffffffffffffffffffffffffffffffffffffff1673ffffffffffffffffffffffffffffffffffffffff168152602001908152602001600020600001546040518082815260200191505060405180910390a1565b6000611c596040805190810160405280600c81526020017f576f6c6672616d416c70686100000000000000000000000000000000000000008152506040805190810160405280601e81526020017f72616e646f6d206e756d626572206265747765656e203020616e6420353100008152506121f5565b60019004905082600a600083815260200190815260200160002060006101000a81548173ffffffffffffffffffffffffffffffffffffffff021916908373ffffffffffffffffffffffffffffffffffffffff16021790555081600b600083815260200190815260200160002060006101000a81548160ff021916908315150217905550505050565b6000806000809054906101000a900473ffffffffffffffffffffffffffffffffffffffff1673ffffffffffffffffffffffffffffffffffffffff161480611d5157506000611d4f6000809054906101000a900473ffffffffffffffffffffffffffffffffffffffff16612797565b145b15611d6257611d6060006127a2565b505b6000809054906101000a900473ffffffffffffffffffffffffffffffffffffffff1673ffffffffffffffffffffffffffffffffffffffff166338cc48316040518163ffffffff167c0100000000000000000000000000000000000000000000000000000000028152600401602060405180830381600087803b158015611de757600080fd5b505af1158015611dfb573d6000803e3d6000fd5b505050506040513d6020811015611e1157600080fd5b810190808051906020019092919050505073ffffffffffffffffffffffffffffffffffffffff16600160009054906101000a900473ffffffffffffffffffffffffffffffffffffffff1673ffffffffffffffffffffffffffffffffffffffff16141515611f79576000809054906101000a900473ffffffffffffffffffffffffffffffffffffffff1673ffffffffffffffffffffffffffffffffffffffff166338cc48316040518163ffffffff167c0100000000000000000000000000000000000000000000000000000000028152600401602060405180830381600087803b158015611efd57600080fd5b505af1158015611f11573d6000803e3d6000fd5b505050506040513d6020811015611f2757600080fd5b8101908080519060200190929190505050600160006101000a81548173ffffffffffffffffffffffffffffffffffffffff021916908373ffffffffffffffffffffffffffffffffffffffff1602179055505b600160009054906101000a900473ffffffffffffffffffffffffffffffffffffffff1673ffffffffffffffffffffffffffffffffffffffff1663c281d19e6040518163ffffffff167c0100000000000000000000000000000000000000000000000000000000028152600401602060405180830381600087803b158015611fff57600080fd5b505af1158015612013573d6000803e3d6000fd5b505050506040513d602081101561202957600080fd5b8101908080519060200190929190505050905090565b600061204c826000612c33565b9050919050565b6000600960008573ffffffffffffffffffffffffffffffffffffffff1673ffffffffffffffffffffffffffffffffffffffff16815260200190815260200160002060040160056101000a81548160ff0219169083151502179055508015612108578273ffffffffffffffffffffffffffffffffffffffff166108fc670de0b6b3a76400009081150290604051600060405180830381858888f19350505050158015612102573d6000803e3d6000fd5b5061215f565b811561215e578273ffffffffffffffffffffffffffffffffffffffff166108fc671bc16d674ec800009081150290604051600060405180830381858888f1935050505015801561215c573d6000803e3d6000fd5b505b5b7ffbb43207bc9074e7bce0ccf098bfb1a79fe791334a4fac4938c69f26eeed98c5600960008573ffffffffffffffffffffffffffffffffffffffff1673ffffffffffffffffffffffffffffffffffffffff168152602001908152602001600020600001548383604051808481526020018315151515815260200182151515158152602001935050505060405180910390a1505050565b60008060008060009054906101000a900473ffffffffffffffffffffffffffffffffffffffff1673ffffffffffffffffffffffffffffffffffffffff161480612267575060006122656000809054906101000a900473ffffffffffffffffffffffffffffffffffffffff16612797565b145b156122785761227660006127a2565b505b6000809054906101000a900473ffffffffffffffffffffffffffffffffffffffff1673ffffffffffffffffffffffffffffffffffffffff166338cc48316040518163ffffffff167c0100000000000000000000000000000000000000000000000000000000028152600401602060405180830381600087803b1580156122fd57600080fd5b505af1158015612311573d6000803e3d6000fd5b505050506040513d602081101561232757600080fd5b810190808051906020019092919050505073ffffffffffffffffffffffffffffffffffffffff16600160009054906101000a900473ffffffffffffffffffffffffffffffffffffffff1673ffffffffffffffffffffffffffffffffffffffff1614151561248f576000809054906101000a900473ffffffffffffffffffffffffffffffffffffffff1673ffffffffffffffffffffffffffffffffffffffff166338cc48316040518163ffffffff167c0100000000000000000000000000000000000000000000000000000000028152600401602060405180830381600087803b15801561241357600080fd5b505af1158015612427573d6000803e3d6000fd5b505050506040513d602081101561243d57600080fd5b8101908080519060200190929190505050600160006101000a81548173ffffffffffffffffffffffffffffffffffffffff021916908373ffffffffffffffffffffffffffffffffffffffff1602179055505b600160009054906101000a900473ffffffffffffffffffffffffffffffffffffffff1673ffffffffffffffffffffffffffffffffffffffff1663524f3889856040518263ffffffff167c01000000000000000000000000000000000000000000000000000000000281526004018080602001828103825283818151815260200191508051906020019080838360005b8381101561253957808201518184015260208101905061251e565b50505050905090810190601f1680156125665780820380516001836020036101000a031916815260200191505b5092505050602060405180830381600087803b15801561258557600080fd5b505af1158015612599573d6000803e3d6000fd5b505050506040513d60208110156125af57600080fd5b8101908080519060200190929190505050905062030d403a02670de0b6b3a7640000018111156125e55760006001029150612790565b600160009054906101000a900473ffffffffffffffffffffffffffffffffffffffff1673ffffffffffffffffffffffffffffffffffffffff1663adf59f9982600087876040518563ffffffff167c0100000000000000000000000000000000000000000000000000000000028152600401808481526020018060200180602001838103835285818151815260200191508051906020019080838360005b8381101561269d578082015181840152602081019050612682565b50505050905090810190601f1680156126ca5780820380516001836020036101000a031916815260200191505b50838103825284818151815260200191508051906020019080838360005b838110156127035780820151818401526020810190506126e8565b50505050905090810190601f1680156127305780820380516001836020036101000a031916815260200191505b50955050505050506020604051808303818588803b15801561275157600080fd5b505af1158015612765573d6000803e3d6000fd5b50505050506040513d602081101561277c57600080fd5b810190808051906020019092919050505091505b5092915050565b6000813b9050919050565b6000806127c2731d3b2638a7cc9f2cb3d298a3da7a90b67e5506ed612797565b111561286357731d3b2638a7cc9f2cb3d298a3da7a90b67e5506ed6000806101000a81548173ffffffffffffffffffffffffffffffffffffffff021916908373ffffffffffffffffffffffffffffffffffffffff16021790555061285a6040805190810160405280600b81526020017f6574685f6d61696e6e6574000000000000000000000000000000000000000000815250612f27565b60019050612c2e565b600061288273c03a2615d5efaf5f49f60b7bb6583eaec212fdf1612797565b11156129235773c03a2615d5efaf5f49f60b7bb6583eaec212fdf16000806101000a81548173ffffffffffffffffffffffffffffffffffffffff021916908373ffffffffffffffffffffffffffffffffffffffff16021790555061291a6040805190810160405280600c81526020017f6574685f726f707374656e330000000000000000000000000000000000000000815250612f27565b60019050612c2e565b600061294273b7a07bcf2ba2f2703b24c0691b5278999c59ac7e612797565b11156129e35773b7a07bcf2ba2f2703b24c0691b5278999c59ac7e6000806101000a81548173ffffffffffffffffffffffffffffffffffffffff021916908373ffffffffffffffffffffffffffffffffffffffff1602179055506129da6040805190810160405280600981526020017f6574685f6b6f76616e0000000000000000000000000000000000000000000000815250612f27565b60019050612c2e565b6000612a0273146500cfd35b22e4a392fe0adc06de1a1368ed48612797565b1115612aa35773146500cfd35b22e4a392fe0adc06de1a1368ed486000806101000a81548173ffffffffffffffffffffffffffffffffffffffff021916908373ffffffffffffffffffffffffffffffffffffffff160217905550612a9a6040805190810160405280600b81526020017f6574685f72696e6b656279000000000000000000000000000000000000000000815250612f27565b60019050612c2e565b6000612ac2736f485c8bf6fc43ea212e93bbf8ce046c7f1cb475612797565b1115612b2557736f485c8bf6fc43ea212e93bbf8ce046c7f1cb4756000806101000a81548173ffffffffffffffffffffffffffffffffffffffff021916908373ffffffffffffffffffffffffffffffffffffffff16021790555060019050612c2e565b6000612b447320e12a1f859b3feae5fb2a0a32c18f5a65555bbf612797565b1115612ba7577320e12a1f859b3feae5fb2a0a32c18f5a65555bbf6000806101000a81548173ffffffffffffffffffffffffffffffffffffffff021916908373ffffffffffffffffffffffffffffffffffffffff16021790555060019050612c2e565b6000612bc67351efaf4c8b3c9afbd5ab9f4bbc82784ab6ef8faa612797565b1115612c29577351efaf4c8b3c9afbd5ab9f4bbc82784ab6ef8faa6000806101000a81548173ffffffffffffffffffffffffffffffffffffffff021916908373ffffffffffffffffffffffffffffffffffffffff16021790555060019050612c2e565b600090505b919050565b6000606060008060008693506000925060009150600090505b8351811015612f085760307f0100000000000000000000000000000000000000000000000000000000000000028482815181101515612c8757fe5b9060200101517f010000000000000000000000000000000000000000000000000000000000000090047f0100000000000000000000000000000000000000000000000000000000000000027effffffffffffffffffffffffffffffffffffffffffffffffffffffffffffff191610158015612d9f575060397f0100000000000000000000000000000000000000000000000000000000000000028482815181101515612d2f57fe5b9060200101517f010000000000000000000000000000000000000000000000000000000000000090047f0100000000000000000000000000000000000000000000000000000000000000027effffffffffffffffffffffffffffffffffffffffffffffffffffffffffffff191611155b15612e50578115612dc2576000861415612db857612f08565b8580600190039650505b600a8302925060308482815181101515612dd857fe5b9060200101517f010000000000000000000000000000000000000000000000000000000000000090047f0100000000000000000000000000000000000000000000000000000000000000027f010000000000000000000000000000000000000000000000000000000000000090040383019250612efb565b602e7f0100000000000000000000000000000000000000000000000000000000000000028482815181101515612e8257fe5b9060200101517f010000000000000000000000000000000000000000000000000000000000000090047f0100000000000000000000000000000000000000000000000000000000000000027effffffffffffffffffffffffffffffffffffffffffffffffffffffffffffff19161415612efa57600191505b5b8080600101915050612c4c565b6000861115612f1a5785600a0a830292505b8294505050505092915050565b8060029080519060200190612f3d929190612f8e565b5050565b828054828255906000526020600020908101928215612f7d579160200282015b82811115612f7c578251825591602001919060010190612f61565b5b509050612f8a919061300e565b5090565b828054600181600116156101000203166002900490600052602060002090601f016020900481019282601f10612fcf57805160ff1916838001178555612ffd565b82800160010185558215612ffd579182015b82811115612ffc578251825591602001919060010190612fe1565b5b50905061300a919061300e565b5090565b61303091905b8082111561302c576000816000905550600101613014565b5090565b905600a165627a7a72305820ece5ae5580aa8cdda0023bb0c8230a6ff8e5eb0d0c184faa9c06282aba0769f10029",
  "source": "pragma solidity ^0.4.22;\r\n\r\nimport \"./usingOraclize.sol\";\r\n\r\ncontract Blackjack is usingOraclize{\r\n\r\n\t\r\n\r\n\tuint8[] public deck;\r\n\tuint8[13] cardValues = [11, 2, 3, 4, 5, 6, 7, 8, 9, 10, 10, 10, 10];\r\n\tuint private bet;\r\n\tuint private id = 0;\r\n\r\n\tstruct Game {\r\n\t\tuint gameId;\r\n\t\taddress playerAddress;\r\n\t\tuint[] playerCards;\r\n\t\tuint[] dealerCards;\r\n\t\tuint8 playerPts;\r\n\t\tuint8 dealerPts;\r\n\t\tbool playerStand;\r\n\t\tuint8 playerAces;\r\n\t\tuint8 dealerAces;\r\n\t\tbool inProgress;\r\n\t\tbool firstDealDone;\r\n\t\tuint cardsCount;\r\n\t}\r\n\r\n\tmapping(address => Game) public games;\r\n\tmapping(uint => address) drawRequests;\r\n\tmapping(uint => bool) drawIsForPlayer;\r\n\r\n\r\n\tevent cardDrawn (\r\n\t\taddress gameId,\r\n\t\tuint card,\r\n\t\tbool forPlayer\r\n\t);\r\n\r\n\tevent newGame (\r\n\t\tuint gameId\r\n\t);\r\n\r\n\tevent gameEnd(\r\n\t\tuint gameId,\r\n\t\tbool playerWon,\r\n\t\tbool isDraw\r\n\t);\r\n\r\n\tconstructor() {\r\n\t\toraclize_setProof(proofType_Ledger);\r\n\t\tbet = 1 ether;\r\n\t\tfor (uint8 i = 0; i < 52; i++) {\r\n\t\t\tdeck.push(i);\r\n\t\t}\r\n    }\r\n\r\n\tfunction startGame() external payable {\r\n\t\trequire(msg.value == 1 ether);\r\n\t\trequire(!games[msg.sender].inProgress);\r\n\t\tgames[msg.sender] = Game(id, msg.sender, new uint[](0), new uint[](0), 0, 0, false, 0, 0, true, false, 0);\r\n\t\tid++;\r\n\t\tdrawCard(msg.sender, true);\r\n\t\tdrawCard(msg.sender, false);  \r\n\t\tdrawCard(msg.sender, true);\r\n\t\tdrawCard(msg.sender, false); \r\n\t\temit newGame(games[msg.sender].gameId);\r\n\t}\r\n\r\n\tfunction drawCard(address _playerAddress, bool _drawIsForPlayer) private constant {\r\n\t\tuint drawId = uint(oraclize_query(\"WolframAlpha\", \"random number between 0 and 51\"));\r\n\t\tdrawRequests[drawId] = _playerAddress;\r\n\t\tdrawIsForPlayer[drawId] = _drawIsForPlayer;\r\n\t}\r\n\r\n\tfunction stand() public {\r\n\t\taddress _playerAddress = msg.sender;\r\n\t\trequire(games[_playerAddress].inProgress);\r\n\t\tgames[_playerAddress].playerStand = true;\r\n\t\tif (games[_playerAddress].dealerPts < 17) {\r\n\t\t\tdrawCard(_playerAddress, false);\r\n\t\t\t//player wins\r\n\t\t} else if (games[_playerAddress].playerPts > games[_playerAddress].dealerPts) {\r\n\t\t\tresolveGame(_playerAddress, true, false);\r\n\t\t\t//dealer wins\r\n\t\t} else if (games[_playerAddress].playerPts < games[_playerAddress].dealerPts) {\r\n\t\t\tresolveGame(_playerAddress, false, false);\r\n\t\t\t//tie\r\n\t\t} else {\r\n\t\t\tresolveGame(_playerAddress, false, true);\r\n\t\t}\r\n\t}\r\n\r\n\tfunction hit() public {\r\n\t\taddress _playerAddress = msg.sender;\r\n\t\trequire(games[_playerAddress].inProgress);\r\n\t\tdrawCard(_playerAddress, true);\r\n\t}\r\n\r\n\tfunction () external payable{\r\n\r\n\t}\r\n\r\n\tfunction resolveGame(address _playerAddress, bool playerWins, bool isDraw) private {\r\n\r\n\t\tgames[_playerAddress].inProgress = false;\r\n\r\n\t\tif (isDraw) {\r\n\t\t\t_playerAddress.transfer(1 ether);\r\n\t\t} else if (playerWins) {\r\n\t\t\t_playerAddress.transfer(2 ether);\t\t\t\r\n\t\t}\r\n\r\n\t\temit gameEnd(games[_playerAddress].gameId, playerWins, isDraw);\r\n\r\n\t\t\r\n\t}\r\n\r\n\tfunction __callback(bytes32 _queryId, string _result, bytes _proof) public{\r\n\t\tif (msg.sender != oraclize_cbAddress()) {\r\n\t\t\trevert(\"Invalid caller, this function should be called only by Oraclize\");\r\n\t\t}\r\n        uint card = parseInt(_result);\r\n        uint qId = uint(_queryId);\r\n\r\n        address _playerAddress = drawRequests[qId];\r\n\r\n        if (games[_playerAddress].inProgress) {\r\n\r\n\t        bool cardAlreadyDrawn = false;\r\n\t        //check player cards\r\n\t        for (uint i = 0; i < games[_playerAddress].playerCards.length; i++) {\r\n\t        \tif (card == games[_playerAddress].playerCards[i]) {\r\n\t        \t\tcardAlreadyDrawn = true;\r\n\t        \t}\r\n\t        }\r\n\t        //check dealer cards\r\n\t        for (uint j = 0; j < games[_playerAddress].dealerCards.length; j++) {\r\n\t        \tif (card == games[_playerAddress].dealerCards[j]) {\r\n\t        \t\tcardAlreadyDrawn = true;\r\n\t        \t}\r\n\t        }\r\n\r\n\t        if (!cardAlreadyDrawn) {\r\n\t        \tgames[_playerAddress].cardsCount++;\r\n\r\n\t\t        if (drawIsForPlayer[qId]) {\r\n\t\t        \tgames[_playerAddress].playerCards.push(card);\r\n\t\t        \tgames[_playerAddress].playerPts += cardValues[card % 13];\r\n\r\n\t\t        \tif (card % 13 == 0) {\r\n\t\t        \t\tgames[_playerAddress].playerAces++;\r\n\t\t        \t}\r\n\r\n\t\t        \tif (games[_playerAddress].playerPts > 21 && games[drawRequests[qId]].playerAces > 0) {\r\n\t\t        \t\tgames[_playerAddress].playerPts -= 10;\r\n\t\t        \t\tgames[_playerAddress].playerAces--;\r\n\t\t        \t}\r\n\r\n\t\t        \temit cardDrawn(_playerAddress, card, true);\r\n\r\n\t\t        \tif (games[_playerAddress].playerPts > 21) {\r\n\t\t        \t\tresolveGame(_playerAddress, false, false);\r\n\t\t        \t} else if (games[_playerAddress].playerPts == 21) {\r\n\t\t        \t\tresolveGame(_playerAddress, true, false);\r\n\t\t        \t} else if (games[_playerAddress].dealerPts < 17 && games[_playerAddress].firstDealDone) {\r\n\t\t        \t\tdrawCard(_playerAddress, false);\r\n\t\t        \t}\r\n\t\t        } else {\r\n\t\t        \tgames[_playerAddress].dealerCards.push(card);\r\n\t\t        \tgames[_playerAddress].dealerPts += cardValues[card % 13];\r\n\r\n\t\t        \tif (card % 13 == 0) {\r\n\t\t        \t\tgames[_playerAddress].dealerAces++;\r\n\t\t        \t}\r\n\r\n\t\t        \tif (games[_playerAddress].dealerPts > 21 && games[_playerAddress].dealerAces > 0) {\r\n\t\t        \t\tgames[_playerAddress].dealerPts -= 10;\r\n\t\t        \t\tgames[_playerAddress].dealerAces--;\r\n\t\t        \t}\r\n\r\n\t\t        \temit cardDrawn(_playerAddress, card, false);\r\n\r\n\t\t        \tif (games[_playerAddress].dealerPts > 21) {\r\n\t\t        \t\tresolveGame(_playerAddress, true, false);\r\n\t\t        \t} else if (games[_playerAddress].dealerPts == 21) {\r\n\t\t        \t\tresolveGame(_playerAddress, false, false);\r\n\t\t        \t}\r\n\r\n\t\t        \t//if player stands dealer will draw until he goes over 17\r\n\t\t        \tif (games[_playerAddress].playerStand) {\r\n\t\t        \t\tif (games[_playerAddress].dealerPts < 17) {\r\n\t\t        \t\t\tdrawCard(_playerAddress, drawIsForPlayer[qId]);\r\n\t\t        \t\t} else {\r\n\t\t        \t\t\tresolveGame(_playerAddress, games[_playerAddress].dealerPts < games[_playerAddress].playerPts, games[_playerAddress].playerPts == games[_playerAddress].dealerPts);\r\n\t\t        \t\t}\r\n\t\t        \t}\r\n\t\t        }\r\n\t\t        if (games[_playerAddress].cardsCount == 4) {\r\n\t\t        \tgames[_playerAddress].firstDealDone = true;\r\n\t\t        }\r\n\t\t    } else {\r\n\t\t    \tdrawCard(_playerAddress, drawIsForPlayer[qId]);\r\n\t\t    }\r\n\t\t}\r\n   }\r\n}\r\n\r\n\r\n\r\n//Blackjack.deployed().then(function(i){app = i})\r\n\r\n//Blackjack.deployed().then(c => c.send(web3.toWei(1, \"ether\"), {from: web3.eth.accounts[1]}).then(tx => {console.log(tx.tx); tx.logs.length && console.log(tx.logs[0].event, tx.logs[0].args)}))\r\n\r\n//Blackjack.deployed().then(c => {c.send(web3.toWei(10, \"ether\"), {from: web3.eth.accounts[0]}).then(tx => {}); app=c;})\r\n\r\n//app.startGame({from:web3.eth.accounts[0], value: web3.toWei(1, \"ether\")});\r\n\r\n//app.hit({from: web3.eth.accounts[0]})\r\n\r\n//app.hit({from})\r\n\r\n//web3.eth.getBalance(web3.eth.accounts[0])\r\n\r\n//app.stand({from: web3.eth.accounts[0]})\r\n\r\n//app.games(web3.eth.accounts[0])\r\n\r\n",
  "sourcePath": "E:\\ethereum\\blackjack\\contracts\\Blackjack.sol",
  "compiler": {
    "name": "solc",
    "version": "0.4.23+commit.124ca40d.Emscripten.clang"
  },
  "schemaVersion": "2.0.0",
  "updatedAt": "2018-05-09T11:38:22.530Z"
}