{
  "contractName": "Blackjack",
  "abi": [
    {
      "constant": true,
      "inputs": [
        {
          "name": "",
          "type": "uint256"
        }
      ],
      "name": "deck",
      "outputs": [
        {
          "name": "",
          "type": "uint8"
        }
      ],
      "payable": false,
      "stateMutability": "view",
      "type": "function"
    },
    {
      "constant": true,
      "inputs": [
        {
          "name": "",
          "type": "address"
        }
      ],
      "name": "games",
      "outputs": [
        {
          "name": "playerAddress",
          "type": "address"
        },
        {
          "name": "playerPts",
          "type": "uint8"
        },
        {
          "name": "dealerPts",
          "type": "uint8"
        },
        {
          "name": "playerStand",
          "type": "bool"
        },
        {
          "name": "playerAces",
          "type": "uint8"
        },
        {
          "name": "dealerAces",
          "type": "uint8"
        },
        {
          "name": "inProgress",
          "type": "bool"
        }
      ],
      "payable": false,
      "stateMutability": "view",
      "type": "function"
    },
    {
      "inputs": [],
      "payable": false,
      "stateMutability": "nonpayable",
      "type": "constructor"
    },
    {
      "payable": true,
      "stateMutability": "payable",
      "type": "fallback"
    },
    {
      "anonymous": false,
      "inputs": [
        {
          "indexed": false,
          "name": "gameId",
          "type": "address"
        },
        {
          "indexed": false,
          "name": "card",
          "type": "uint256"
        },
        {
          "indexed": false,
          "name": "forPlayer",
          "type": "bool"
        }
      ],
      "name": "cardDrawn",
      "type": "event"
    },
    {
      "constant": false,
      "inputs": [],
      "name": "startGame",
      "outputs": [],
      "payable": true,
      "stateMutability": "payable",
      "type": "function"
    },
    {
      "constant": false,
      "inputs": [],
      "name": "stand",
      "outputs": [],
      "payable": false,
      "stateMutability": "nonpayable",
      "type": "function"
    },
    {
      "constant": false,
      "inputs": [],
      "name": "hit",
      "outputs": [],
      "payable": false,
      "stateMutability": "nonpayable",
      "type": "function"
    },
    {
      "constant": false,
      "inputs": [
        {
          "name": "myid",
          "type": "bytes32"
        },
        {
          "name": "result",
          "type": "string"
        }
      ],
      "name": "__callback",
      "outputs": [],
      "payable": false,
      "stateMutability": "nonpayable",
      "type": "function"
    },
    {
      "constant": false,
      "inputs": [
        {
          "name": "_queryId",
          "type": "bytes32"
        },
        {
          "name": "_result",
          "type": "string"
        },
        {
          "name": "_proof",
          "type": "bytes"
        }
      ],
      "name": "__callback",
      "outputs": [],
      "payable": false,
      "stateMutability": "nonpayable",
      "type": "function"
    }
  ],
  "bytecode": "0x60806040526101a060405190810160405280600b60ff168152602001600260ff168152602001600360ff168152602001600460ff168152602001600560ff168152602001600660ff168152602001600760ff168152602001600860ff168152602001600960ff168152602001600a60ff168152602001600a60ff168152602001600a60ff168152602001600a60ff16815250600690600d620000a392919062000aa4565b50348015620000b157600080fd5b506000620000f160307f0100000000000000000000000000000000000000000000000000000000000000026200016f640100000000026401000000009004565b670de0b6b3a7640000600781905550600090505b60348160ff1610156200016857600581908060018154018082558091505090600182039060005260206000209060209182820401919006909192909190916101000a81548160ff021916908360ff16021790555050808060010191505062000105565b5062000c27565b60008060009054906101000a900473ffffffffffffffffffffffffffffffffffffffff1673ffffffffffffffffffffffffffffffffffffffff161480620001f057506000620001ee6000809054906101000a900473ffffffffffffffffffffffffffffffffffffffff1662000523640100000000026401000000009004565b145b1562000213576200021160006200052e640100000000026401000000009004565b505b6000809054906101000a900473ffffffffffffffffffffffffffffffffffffffff1673ffffffffffffffffffffffffffffffffffffffff166338cc48316040518163ffffffff167c0100000000000000000000000000000000000000000000000000000000028152600401602060405180830381600087803b1580156200029957600080fd5b505af1158015620002ae573d6000803e3d6000fd5b505050506040513d6020811015620002c557600080fd5b810190808051906020019092919050505073ffffffffffffffffffffffffffffffffffffffff16600160009054906101000a900473ffffffffffffffffffffffffffffffffffffffff1673ffffffffffffffffffffffffffffffffffffffff1614151562000431576000809054906101000a900473ffffffffffffffffffffffffffffffffffffffff1673ffffffffffffffffffffffffffffffffffffffff166338cc48316040518163ffffffff167c0100000000000000000000000000000000000000000000000000000000028152600401602060405180830381600087803b158015620003b357600080fd5b505af1158015620003c8573d6000803e3d6000fd5b505050506040513d6020811015620003df57600080fd5b8101908080519060200190929190505050600160006101000a81548173ffffffffffffffffffffffffffffffffffffffff021916908373ffffffffffffffffffffffffffffffffffffffff1602179055505b600160009054906101000a900473ffffffffffffffffffffffffffffffffffffffff1673ffffffffffffffffffffffffffffffffffffffff1663688dcfd7826040518263ffffffff167c010000000000000000000000000000000000000000000000000000000002815260040180827effffffffffffffffffffffffffffffffffffffffffffffffffffffffffffff19167effffffffffffffffffffffffffffffffffffffffffffffffffffffffffffff19168152602001915050600060405180830381600087803b1580156200050757600080fd5b505af11580156200051c573d6000803e3d6000fd5b5050505050565b6000813b9050919050565b6000806200055f731d3b2638a7cc9f2cb3d298a3da7a90b67e5506ed62000523640100000000026401000000009004565b11156200061357731d3b2638a7cc9f2cb3d298a3da7a90b67e5506ed6000806101000a81548173ffffffffffffffffffffffffffffffffffffffff021916908373ffffffffffffffffffffffffffffffffffffffff160217905550620006096040805190810160405280600b81526020017f6574685f6d61696e6e657400000000000000000000000000000000000000000081525062000a88640100000000026401000000009004565b6001905062000a83565b60006200064373c03a2615d5efaf5f49f60b7bb6583eaec212fdf162000523640100000000026401000000009004565b1115620006f75773c03a2615d5efaf5f49f60b7bb6583eaec212fdf16000806101000a81548173ffffffffffffffffffffffffffffffffffffffff021916908373ffffffffffffffffffffffffffffffffffffffff160217905550620006ed6040805190810160405280600c81526020017f6574685f726f707374656e33000000000000000000000000000000000000000081525062000a88640100000000026401000000009004565b6001905062000a83565b60006200072773b7a07bcf2ba2f2703b24c0691b5278999c59ac7e62000523640100000000026401000000009004565b1115620007db5773b7a07bcf2ba2f2703b24c0691b5278999c59ac7e6000806101000a81548173ffffffffffffffffffffffffffffffffffffffff021916908373ffffffffffffffffffffffffffffffffffffffff160217905550620007d16040805190810160405280600981526020017f6574685f6b6f76616e000000000000000000000000000000000000000000000081525062000a88640100000000026401000000009004565b6001905062000a83565b60006200080b73146500cfd35b22e4a392fe0adc06de1a1368ed4862000523640100000000026401000000009004565b1115620008bf5773146500cfd35b22e4a392fe0adc06de1a1368ed486000806101000a81548173ffffffffffffffffffffffffffffffffffffffff021916908373ffffffffffffffffffffffffffffffffffffffff160217905550620008b56040805190810160405280600b81526020017f6574685f72696e6b65627900000000000000000000000000000000000000000081525062000a88640100000000026401000000009004565b6001905062000a83565b6000620008ef736f485c8bf6fc43ea212e93bbf8ce046c7f1cb47562000523640100000000026401000000009004565b11156200095457736f485c8bf6fc43ea212e93bbf8ce046c7f1cb4756000806101000a81548173ffffffffffffffffffffffffffffffffffffffff021916908373ffffffffffffffffffffffffffffffffffffffff1602179055506001905062000a83565b6000620009847320e12a1f859b3feae5fb2a0a32c18f5a65555bbf62000523640100000000026401000000009004565b1115620009e9577320e12a1f859b3feae5fb2a0a32c18f5a65555bbf6000806101000a81548173ffffffffffffffffffffffffffffffffffffffff021916908373ffffffffffffffffffffffffffffffffffffffff1602179055506001905062000a83565b600062000a197351efaf4c8b3c9afbd5ab9f4bbc82784ab6ef8faa62000523640100000000026401000000009004565b111562000a7e577351efaf4c8b3c9afbd5ab9f4bbc82784ab6ef8faa6000806101000a81548173ffffffffffffffffffffffffffffffffffffffff021916908373ffffffffffffffffffffffffffffffffffffffff1602179055506001905062000a83565b600090505b919050565b806002908051906020019062000aa092919062000b45565b5050565b82600d601f0160209004810192821562000b325791602002820160005b8382111562000b0157835183826101000a81548160ff021916908360ff160217905550926020019260010160208160000104928301926001030262000ac1565b801562000b305782816101000a81549060ff021916905560010160208160000104928301926001030262000b01565b505b50905062000b41919062000bcc565b5090565b828054600181600116156101000203166002900490600052602060002090601f016020900481019282601f1062000b8857805160ff191683800117855562000bb9565b8280016001018555821562000bb9579182015b8281111562000bb857825182559160200191906001019062000b9b565b5b50905062000bc8919062000bff565b5090565b62000bfc91905b8082111562000bf857600081816101000a81549060ff02191690555060010162000bd3565b5090565b90565b62000c2491905b8082111562000c2057600081600090555060010162000c06565b5090565b90565b6129b48062000c376000396000f300608060405260043610610083576000357c0100000000000000000000000000000000000000000000000000000000900463ffffffff16806327dc297e146100855780632ae3594a146100fc57806338bbfa501461011357806365b1dafa146101d057806379131a1914610217578063c2897b10146102e4578063d65ab5f2146102fb575b005b34801561009157600080fd5b506100fa6004803603810190808035600019169060200190929190803590602001908201803590602001908080601f0160208091040260200160405190810160405280939291908181526020018383808284378201915050505050509192919290505050610305565b005b34801561010857600080fd5b50610111610348565b005b34801561011f57600080fd5b506101ce6004803603810190808035600019169060200190929190803590602001908201803590602001908080601f0160208091040260200160405190810160405280939291908181526020018383808284378201915050505050509192919290803590602001908201803590602001908080601f01602080910402602001604051908101604052809392919081815260200183838082843782019150505050505091929192905050506103c2565b005b3480156101dc57600080fd5b506101fb60048036038101908080359060200190929190505050611009565b604051808260ff1660ff16815260200191505060405180910390f35b34801561022357600080fd5b50610258600480360381019080803573ffffffffffffffffffffffffffffffffffffffff16906020019092919050505061103c565b604051808873ffffffffffffffffffffffffffffffffffffffff1673ffffffffffffffffffffffffffffffffffffffff1681526020018760ff1660ff1681526020018660ff1660ff168152602001851515151581526020018460ff1660ff1681526020018360ff1660ff1681526020018215151515815260200197505050505050505060405180910390f35b3480156102f057600080fd5b506102f96110ec565b005b6103036112ea565b005b610344828260006040519080825280601f01601f19166020018201604052801561033e5781602001602082028038833980820191505090505b506103c2565b5050565b60003390506103588160016115c9565b6011600860008373ffffffffffffffffffffffffffffffffffffffff1673ffffffffffffffffffffffffffffffffffffffff16815260200190815260200160002060030160019054906101000a900460ff1660ff1610156103bf576103be8160006115c9565b5b50565b6000806000806000806103d36116c7565b73ffffffffffffffffffffffffffffffffffffffff163373ffffffffffffffffffffffffffffffffffffffff1614151561049b576040517f08c379a000000000000000000000000000000000000000000000000000000000815260040180806020018281038252603f8152602001807f496e76616c69642063616c6c65722c20746869732066756e6374696f6e20736881526020017f6f756c642062652063616c6c6564206f6e6c79206279204f7261636c697a650081525060400191505060405180910390fd5b6104a488611a25565b9550886001900494506009600086815260200190815260200160002060009054906101000a900473ffffffffffffffffffffffffffffffffffffffff16935060009250600091505b600860008573ffffffffffffffffffffffffffffffffffffffff1673ffffffffffffffffffffffffffffffffffffffff168152602001908152602001600020600101805490508210156105ac57600860008573ffffffffffffffffffffffffffffffffffffffff1673ffffffffffffffffffffffffffffffffffffffff1681526020019081526020016000206001018281548110151561058857fe5b906000526020600020015486141561059f57600192505b81806001019250506104ec565b600090505b600860008573ffffffffffffffffffffffffffffffffffffffff1673ffffffffffffffffffffffffffffffffffffffff1681526020019081526020016000206002018054905081101561067157600860008573ffffffffffffffffffffffffffffffffffffffff1673ffffffffffffffffffffffffffffffffffffffff1681526020019081526020016000206002018181548110151561064d57fe5b906000526020600020015486141561066457600192505b80806001019150506105b1565b821515610fd357600a600086815260200190815260200160002060009054906101000a900460ff1615610ae257600860008573ffffffffffffffffffffffffffffffffffffffff1673ffffffffffffffffffffffffffffffffffffffff1681526020019081526020016000206001018690806001815401808255809150509060018203906000526020600020016000909192909190915055506006600d8781151561071857fe5b06600d8110151561072557fe5b602091828204019190069054906101000a900460ff16600860008673ffffffffffffffffffffffffffffffffffffffff1673ffffffffffffffffffffffffffffffffffffffff16815260200190815260200160002060030160008282829054906101000a900460ff160192506101000a81548160ff021916908360ff1602179055506000600d878115156107b557fe5b06141561082f57600860008573ffffffffffffffffffffffffffffffffffffffff1673ffffffffffffffffffffffffffffffffffffffff168152602001908152602001600020600301600381819054906101000a900460ff168092919060010191906101000a81548160ff021916908360ff160217905550505b6015600860008673ffffffffffffffffffffffffffffffffffffffff1673ffffffffffffffffffffffffffffffffffffffff16815260200190815260200160002060030160009054906101000a900460ff1660ff1611801561091657506000600860006009600089815260200190815260200160002060009054906101000a900473ffffffffffffffffffffffffffffffffffffffff1673ffffffffffffffffffffffffffffffffffffffff1673ffffffffffffffffffffffffffffffffffffffff16815260200190815260200160002060030160039054906101000a900460ff1660ff16115b156109fd57600a600860008673ffffffffffffffffffffffffffffffffffffffff1673ffffffffffffffffffffffffffffffffffffffff16815260200190815260200160002060030160008282829054906101000a900460ff160392506101000a81548160ff021916908360ff160217905550600860008573ffffffffffffffffffffffffffffffffffffffff1673ffffffffffffffffffffffffffffffffffffffff168152602001908152602001600020600301600381819054906101000a900460ff16809291906001900391906101000a81548160ff021916908360ff160217905550505b7f0752f542c207d61787fd25394e818eaf7cfcef43381f74ba0acc11b299e10a6284876001604051808473ffffffffffffffffffffffffffffffffffffffff1673ffffffffffffffffffffffffffffffffffffffff16815260200183815260200182151515158152602001935050505060405180910390a16015600860008673ffffffffffffffffffffffffffffffffffffffff1673ffffffffffffffffffffffffffffffffffffffff16815260200190815260200160002060030160009054906101000a900460ff1660ff161115610add57610adc84600080611a39565b5b610fce565b600860008573ffffffffffffffffffffffffffffffffffffffff1673ffffffffffffffffffffffffffffffffffffffff1681526020019081526020016000206002018690806001815401808255809150509060018203906000526020600020016000909192909190915055506006600d87811515610b5c57fe5b06600d81101515610b6957fe5b602091828204019190069054906101000a900460ff16600860008673ffffffffffffffffffffffffffffffffffffffff1673ffffffffffffffffffffffffffffffffffffffff16815260200190815260200160002060030160018282829054906101000a900460ff160192506101000a81548160ff021916908360ff1602179055506000600d87811515610bf957fe5b061415610c7357600860008573ffffffffffffffffffffffffffffffffffffffff1673ffffffffffffffffffffffffffffffffffffffff168152602001908152602001600020600301600481819054906101000a900460ff168092919060010191906101000a81548160ff021916908360ff160217905550505b6015600860008673ffffffffffffffffffffffffffffffffffffffff1673ffffffffffffffffffffffffffffffffffffffff16815260200190815260200160002060030160019054906101000a900460ff1660ff16118015610d2757506000600860008673ffffffffffffffffffffffffffffffffffffffff1673ffffffffffffffffffffffffffffffffffffffff16815260200190815260200160002060030160049054906101000a900460ff1660ff16115b15610e0e57600a600860008673ffffffffffffffffffffffffffffffffffffffff1673ffffffffffffffffffffffffffffffffffffffff16815260200190815260200160002060030160018282829054906101000a900460ff160392506101000a81548160ff021916908360ff160217905550600860008573ffffffffffffffffffffffffffffffffffffffff1673ffffffffffffffffffffffffffffffffffffffff168152602001908152602001600020600301600481819054906101000a900460ff16809291906001900391906101000a81548160ff021916908360ff160217905550505b7f0752f542c207d61787fd25394e818eaf7cfcef43381f74ba0acc11b299e10a6284876000604051808473ffffffffffffffffffffffffffffffffffffffff1673ffffffffffffffffffffffffffffffffffffffff16815260200183815260200182151515158152602001935050505060405180910390a1600860008573ffffffffffffffffffffffffffffffffffffffff1673ffffffffffffffffffffffffffffffffffffffff16815260200190815260200160002060030160029054906101000a900460ff168015610f3457506011600860008673ffffffffffffffffffffffffffffffffffffffff1673ffffffffffffffffffffffffffffffffffffffff16815260200190815260200160002060030160019054906101000a900460ff1660ff16105b15610f6457610f6384600a600088815260200190815260200160002060009054906101000a900460ff166115c9565b5b6015600860008673ffffffffffffffffffffffffffffffffffffffff1673ffffffffffffffffffffffffffffffffffffffff16815260200190815260200160002060030160019054906101000a900460ff1660ff161115610fcd57610fcc8460016000611a39565b5b5b610ffe565b610ffd84600a600088815260200190815260200160002060009054906101000a900460ff166115c9565b5b505050505050505050565b60058181548110151561101857fe5b9060005260206000209060209182820401919006915054906101000a900460ff1681565b60086020528060005260406000206000915090508060000160009054906101000a900473ffffffffffffffffffffffffffffffffffffffff16908060030160009054906101000a900460ff16908060030160019054906101000a900460ff16908060030160029054906101000a900460ff16908060030160039054906101000a900460ff16908060030160049054906101000a900460ff16908060030160059054906101000a900460ff16905087565b60003390506011600860008373ffffffffffffffffffffffffffffffffffffffff1673ffffffffffffffffffffffffffffffffffffffff16815260200190815260200160002060030160019054906101000a900460ff1660ff16101561115c576111578160006115c9565b6112e7565b600860008273ffffffffffffffffffffffffffffffffffffffff1673ffffffffffffffffffffffffffffffffffffffff16815260200190815260200160002060030160019054906101000a900460ff1660ff16600860008373ffffffffffffffffffffffffffffffffffffffff1673ffffffffffffffffffffffffffffffffffffffff16815260200190815260200160002060030160009054906101000a900460ff1660ff16111561121a576112158160016000611a39565b6112e6565b600860008273ffffffffffffffffffffffffffffffffffffffff1673ffffffffffffffffffffffffffffffffffffffff16815260200190815260200160002060030160019054906101000a900460ff1660ff16600860008373ffffffffffffffffffffffffffffffffffffffff1673ffffffffffffffffffffffffffffffffffffffff16815260200190815260200160002060030160009054906101000a900460ff1660ff1610156112d7576112d281600080611a39565b6112e5565b6112e48160006001611a39565b5b5b5b50565b670de0b6b3a76400003414151561130057600080fd5b600860003373ffffffffffffffffffffffffffffffffffffffff1673ffffffffffffffffffffffffffffffffffffffff16815260200190815260200160002060030160059054906101000a900460ff1615151561135c57600080fd5b610120604051908101604052803373ffffffffffffffffffffffffffffffffffffffff16815260200160006040519080825280602002602001820160405280156113b55781602001602082028038833980820191505090505b50815260200160006040519080825280602002602001820160405280156113eb5781602001602082028038833980820191505090505b508152602001600060ff168152602001600060ff168152602001600015158152602001600060ff168152602001600060ff16815260200160011515815250600860003373ffffffffffffffffffffffffffffffffffffffff1673ffffffffffffffffffffffffffffffffffffffff16815260200190815260200160002060008201518160000160006101000a81548173ffffffffffffffffffffffffffffffffffffffff021916908373ffffffffffffffffffffffffffffffffffffffff16021790555060208201518160010190805190602001906114cb929190612896565b5060408201518160020190805190602001906114e8929190612896565b5060608201518160030160006101000a81548160ff021916908360ff16021790555060808201518160030160016101000a81548160ff021916908360ff16021790555060a08201518160030160026101000a81548160ff02191690831515021790555060c08201518160030160036101000a81548160ff021916908360ff16021790555060e08201518160030160046101000a81548160ff021916908360ff1602179055506101008201518160030160056101000a81548160ff0219169083151502179055509050506115bc3360006115c9565b6115c73360016115c9565b565b600061163f6040805190810160405280600c81526020017f576f6c6672616d416c70686100000000000000000000000000000000000000008152506040805190810160405280601e81526020017f72616e646f6d206e756d626572206265747765656e203020616e642035310000815250611b4a565b600190049050826009600083815260200190815260200160002060006101000a81548173ffffffffffffffffffffffffffffffffffffffff021916908373ffffffffffffffffffffffffffffffffffffffff16021790555081600a600083815260200190815260200160002060006101000a81548160ff021916908315150217905550505050565b6000806000809054906101000a900473ffffffffffffffffffffffffffffffffffffffff1673ffffffffffffffffffffffffffffffffffffffff161480611737575060006117356000809054906101000a900473ffffffffffffffffffffffffffffffffffffffff166120ec565b145b156117485761174660006120f7565b505b6000809054906101000a900473ffffffffffffffffffffffffffffffffffffffff1673ffffffffffffffffffffffffffffffffffffffff166338cc48316040518163ffffffff167c0100000000000000000000000000000000000000000000000000000000028152600401602060405180830381600087803b1580156117cd57600080fd5b505af11580156117e1573d6000803e3d6000fd5b505050506040513d60208110156117f757600080fd5b810190808051906020019092919050505073ffffffffffffffffffffffffffffffffffffffff16600160009054906101000a900473ffffffffffffffffffffffffffffffffffffffff1673ffffffffffffffffffffffffffffffffffffffff1614151561195f576000809054906101000a900473ffffffffffffffffffffffffffffffffffffffff1673ffffffffffffffffffffffffffffffffffffffff166338cc48316040518163ffffffff167c0100000000000000000000000000000000000000000000000000000000028152600401602060405180830381600087803b1580156118e357600080fd5b505af11580156118f7573d6000803e3d6000fd5b505050506040513d602081101561190d57600080fd5b8101908080519060200190929190505050600160006101000a81548173ffffffffffffffffffffffffffffffffffffffff021916908373ffffffffffffffffffffffffffffffffffffffff1602179055505b600160009054906101000a900473ffffffffffffffffffffffffffffffffffffffff1673ffffffffffffffffffffffffffffffffffffffff1663c281d19e6040518163ffffffff167c0100000000000000000000000000000000000000000000000000000000028152600401602060405180830381600087803b1580156119e557600080fd5b505af11580156119f9573d6000803e3d6000fd5b505050506040513d6020811015611a0f57600080fd5b8101908080519060200190929190505050905090565b6000611a32826000612588565b9050919050565b8115611a93578273ffffffffffffffffffffffffffffffffffffffff166108fc671bc16d674ec800009081150290604051600060405180830381858888f19350505050158015611a8d573d6000803e3d6000fd5b50611aea565b8015611ae9578273ffffffffffffffffffffffffffffffffffffffff166108fc670de0b6b3a76400009081150290604051600060405180830381858888f19350505050158015611ae7573d6000803e3d6000fd5b505b5b6000600860008573ffffffffffffffffffffffffffffffffffffffff1673ffffffffffffffffffffffffffffffffffffffff16815260200190815260200160002060030160056101000a81548160ff021916908315150217905550505050565b60008060008060009054906101000a900473ffffffffffffffffffffffffffffffffffffffff1673ffffffffffffffffffffffffffffffffffffffff161480611bbc57506000611bba6000809054906101000a900473ffffffffffffffffffffffffffffffffffffffff166120ec565b145b15611bcd57611bcb60006120f7565b505b6000809054906101000a900473ffffffffffffffffffffffffffffffffffffffff1673ffffffffffffffffffffffffffffffffffffffff166338cc48316040518163ffffffff167c0100000000000000000000000000000000000000000000000000000000028152600401602060405180830381600087803b158015611c5257600080fd5b505af1158015611c66573d6000803e3d6000fd5b505050506040513d6020811015611c7c57600080fd5b810190808051906020019092919050505073ffffffffffffffffffffffffffffffffffffffff16600160009054906101000a900473ffffffffffffffffffffffffffffffffffffffff1673ffffffffffffffffffffffffffffffffffffffff16141515611de4576000809054906101000a900473ffffffffffffffffffffffffffffffffffffffff1673ffffffffffffffffffffffffffffffffffffffff166338cc48316040518163ffffffff167c0100000000000000000000000000000000000000000000000000000000028152600401602060405180830381600087803b158015611d6857600080fd5b505af1158015611d7c573d6000803e3d6000fd5b505050506040513d6020811015611d9257600080fd5b8101908080519060200190929190505050600160006101000a81548173ffffffffffffffffffffffffffffffffffffffff021916908373ffffffffffffffffffffffffffffffffffffffff1602179055505b600160009054906101000a900473ffffffffffffffffffffffffffffffffffffffff1673ffffffffffffffffffffffffffffffffffffffff1663524f3889856040518263ffffffff167c01000000000000000000000000000000000000000000000000000000000281526004018080602001828103825283818151815260200191508051906020019080838360005b83811015611e8e578082015181840152602081019050611e73565b50505050905090810190601f168015611ebb5780820380516001836020036101000a031916815260200191505b5092505050602060405180830381600087803b158015611eda57600080fd5b505af1158015611eee573d6000803e3d6000fd5b505050506040513d6020811015611f0457600080fd5b8101908080519060200190929190505050905062030d403a02670de0b6b3a764000001811115611f3a57600060010291506120e5565b600160009054906101000a900473ffffffffffffffffffffffffffffffffffffffff1673ffffffffffffffffffffffffffffffffffffffff1663adf59f9982600087876040518563ffffffff167c0100000000000000000000000000000000000000000000000000000000028152600401808481526020018060200180602001838103835285818151815260200191508051906020019080838360005b83811015611ff2578082015181840152602081019050611fd7565b50505050905090810190601f16801561201f5780820380516001836020036101000a031916815260200191505b50838103825284818151815260200191508051906020019080838360005b8381101561205857808201518184015260208101905061203d565b50505050905090810190601f1680156120855780820380516001836020036101000a031916815260200191505b50955050505050506020604051808303818588803b1580156120a657600080fd5b505af11580156120ba573d6000803e3d6000fd5b50505050506040513d60208110156120d157600080fd5b810190808051906020019092919050505091505b5092915050565b6000813b9050919050565b600080612117731d3b2638a7cc9f2cb3d298a3da7a90b67e5506ed6120ec565b11156121b857731d3b2638a7cc9f2cb3d298a3da7a90b67e5506ed6000806101000a81548173ffffffffffffffffffffffffffffffffffffffff021916908373ffffffffffffffffffffffffffffffffffffffff1602179055506121af6040805190810160405280600b81526020017f6574685f6d61696e6e657400000000000000000000000000000000000000000081525061287c565b60019050612583565b60006121d773c03a2615d5efaf5f49f60b7bb6583eaec212fdf16120ec565b11156122785773c03a2615d5efaf5f49f60b7bb6583eaec212fdf16000806101000a81548173ffffffffffffffffffffffffffffffffffffffff021916908373ffffffffffffffffffffffffffffffffffffffff16021790555061226f6040805190810160405280600c81526020017f6574685f726f707374656e33000000000000000000000000000000000000000081525061287c565b60019050612583565b600061229773b7a07bcf2ba2f2703b24c0691b5278999c59ac7e6120ec565b11156123385773b7a07bcf2ba2f2703b24c0691b5278999c59ac7e6000806101000a81548173ffffffffffffffffffffffffffffffffffffffff021916908373ffffffffffffffffffffffffffffffffffffffff16021790555061232f6040805190810160405280600981526020017f6574685f6b6f76616e000000000000000000000000000000000000000000000081525061287c565b60019050612583565b600061235773146500cfd35b22e4a392fe0adc06de1a1368ed486120ec565b11156123f85773146500cfd35b22e4a392fe0adc06de1a1368ed486000806101000a81548173ffffffffffffffffffffffffffffffffffffffff021916908373ffffffffffffffffffffffffffffffffffffffff1602179055506123ef6040805190810160405280600b81526020017f6574685f72696e6b65627900000000000000000000000000000000000000000081525061287c565b60019050612583565b6000612417736f485c8bf6fc43ea212e93bbf8ce046c7f1cb4756120ec565b111561247a57736f485c8bf6fc43ea212e93bbf8ce046c7f1cb4756000806101000a81548173ffffffffffffffffffffffffffffffffffffffff021916908373ffffffffffffffffffffffffffffffffffffffff16021790555060019050612583565b60006124997320e12a1f859b3feae5fb2a0a32c18f5a65555bbf6120ec565b11156124fc577320e12a1f859b3feae5fb2a0a32c18f5a65555bbf6000806101000a81548173ffffffffffffffffffffffffffffffffffffffff021916908373ffffffffffffffffffffffffffffffffffffffff16021790555060019050612583565b600061251b7351efaf4c8b3c9afbd5ab9f4bbc82784ab6ef8faa6120ec565b111561257e577351efaf4c8b3c9afbd5ab9f4bbc82784ab6ef8faa6000806101000a81548173ffffffffffffffffffffffffffffffffffffffff021916908373ffffffffffffffffffffffffffffffffffffffff16021790555060019050612583565b600090505b919050565b6000606060008060008693506000925060009150600090505b835181101561285d5760307f01000000000000000000000000000000000000000000000000000000000000000284828151811015156125dc57fe5b9060200101517f010000000000000000000000000000000000000000000000000000000000000090047f0100000000000000000000000000000000000000000000000000000000000000027effffffffffffffffffffffffffffffffffffffffffffffffffffffffffffff1916101580156126f4575060397f010000000000000000000000000000000000000000000000000000000000000002848281518110151561268457fe5b9060200101517f010000000000000000000000000000000000000000000000000000000000000090047f0100000000000000000000000000000000000000000000000000000000000000027effffffffffffffffffffffffffffffffffffffffffffffffffffffffffffff191611155b156127a557811561271757600086141561270d5761285d565b8580600190039650505b600a830292506030848281518110151561272d57fe5b9060200101517f010000000000000000000000000000000000000000000000000000000000000090047f0100000000000000000000000000000000000000000000000000000000000000027f010000000000000000000000000000000000000000000000000000000000000090040383019250612850565b602e7f01000000000000000000000000000000000000000000000000000000000000000284828151811015156127d757fe5b9060200101517f010000000000000000000000000000000000000000000000000000000000000090047f0100000000000000000000000000000000000000000000000000000000000000027effffffffffffffffffffffffffffffffffffffffffffffffffffffffffffff1916141561284f57600191505b5b80806001019150506125a1565b600086111561286f5785600a0a830292505b8294505050505092915050565b80600290805190602001906128929291906128e3565b5050565b8280548282559060005260206000209081019282156128d2579160200282015b828111156128d15782518255916020019190600101906128b6565b5b5090506128df9190612963565b5090565b828054600181600116156101000203166002900490600052602060002090601f016020900481019282601f1061292457805160ff1916838001178555612952565b82800160010185558215612952579182015b82811115612951578251825591602001919060010190612936565b5b50905061295f9190612963565b5090565b61298591905b80821115612981576000816000905550600101612969565b5090565b905600a165627a7a72305820e32214eade96ac147a4af373accbee1ebc28bdf433b99884cc79b8908b8690860029",
  "source": "pragma solidity ^0.4.22;\r\n\r\nimport \"./usingOraclize.sol\";\r\n\r\ncontract Blackjack is usingOraclize{\r\n\r\n\t\r\n\r\n\tuint8[] public deck;\r\n\tuint8[13] cardValues = [11, 2, 3, 4, 5, 6, 7, 8, 9, 10, 10, 10, 10];\r\n\tuint private bet;\r\n\r\n\tstruct Game {\r\n\t\taddress playerAddress;\r\n\t\tuint[] playerCards;\r\n\t\tuint[] dealerCards;\r\n\t\tuint8 playerPts;\r\n\t\tuint8 dealerPts;\r\n\t\tbool playerStand;\r\n\t\tuint8 playerAces;\r\n\t\tuint8 dealerAces;\r\n\t\tbool inProgress;\r\n\t}\r\n\r\n\tmapping(address => Game) public games;\r\n\tmapping(uint => address) drawRequests;\r\n\tmapping(uint => bool) drawIsForPlayer;\r\n\r\n\r\n\tevent cardDrawn (\r\n\t\taddress gameId,\r\n\t\tuint card,\r\n\t\tbool forPlayer\r\n\t);\r\n\r\n\tconstructor() {\r\n\t\toraclize_setProof(proofType_Ledger);\r\n\t\tbet = 1 ether;\r\n\t\tfor (uint8 i = 0; i < 52; i++) {\r\n\t\t\tdeck.push(i);\r\n\t\t}\r\n    }\r\n\r\n\tfunction startGame() external payable {\r\n\t\trequire(msg.value == 1 ether);\r\n\t\trequire(!games[msg.sender].inProgress);\r\n\t\tgames[msg.sender] = Game(msg.sender, new uint[](0), new uint[](0), 0, 0, false, 0, 0, true);\r\n\t\tdrawCard(msg.sender, false); \r\n\t\tdrawCard(msg.sender, true); \r\n\t}\r\n\r\n\tfunction drawCard(address _playerAddress, bool _drawIsForPlayer) private constant {\r\n\t\tuint drawId = uint(oraclize_query(\"WolframAlpha\", \"random number between 0 and 51\"));\r\n\t\tdrawRequests[drawId] = _playerAddress;\r\n\t\tdrawIsForPlayer[drawId] = _drawIsForPlayer;\r\n\t}\r\n\r\n\tfunction stand() public {\r\n\t\taddress _playerAddress = msg.sender;\r\n\t\tif (games[_playerAddress].dealerPts < 17) {\r\n\t\t\tdrawCard(_playerAddress, false);\r\n\t\t\t//player wins\r\n\t\t} else if (games[_playerAddress].playerPts > games[_playerAddress].dealerPts) {\r\n\t\t\tresolveGame(_playerAddress, true, false);\r\n\t\t\t//dealer wins\r\n\t\t} else if (games[_playerAddress].playerPts < games[_playerAddress].dealerPts) {\r\n\t\t\tresolveGame(_playerAddress, false, false);\r\n\t\t\t//tie\r\n\t\t} else {\r\n\t\t\tresolveGame(_playerAddress, false, true);\r\n\t\t}\r\n\t}\r\n\r\n\tfunction hit() public {\r\n\t\taddress _playerAddress = msg.sender;\r\n\t\tdrawCard(_playerAddress, true);\r\n\t\tif (games[_playerAddress].dealerPts < 17) {\r\n\t\t\tdrawCard(_playerAddress, false);\r\n\t\t}\r\n\t}\r\n\r\n\tfunction () external payable{\r\n\t}\r\n\r\n\tfunction resolveGame(address _playerAddress, bool playerWins, bool isDraw) private {\r\n\r\n\t\tif (playerWins) {\r\n\t\t\t_playerAddress.transfer(2 ether);\r\n\t\t} else if (isDraw) {\r\n\t\t\t_playerAddress.transfer(1 ether);\r\n\t\t}\r\n\r\n\t\tgames[_playerAddress].inProgress = false;\r\n\t}\r\n\r\n\tfunction __callback(bytes32 _queryId, string _result, bytes _proof) public{\r\n\t\tif (msg.sender != oraclize_cbAddress()) {\r\n\t\t\trevert(\"Invalid caller, this function should be called only by Oraclize\");\r\n\t\t}\r\n        uint card = parseInt(_result);\r\n        uint qId = uint(_queryId);\r\n\r\n        address _playerAddress = drawRequests[qId];\r\n\r\n        bool cardAlreadyDrawn = false;\r\n        //check player cards\r\n        for (uint i = 0; i < games[_playerAddress].playerCards.length; i++) {\r\n        \tif (card == games[_playerAddress].playerCards[i]) {\r\n        \t\tcardAlreadyDrawn = true;\r\n        \t}\r\n        }\r\n        //check dealer cards\r\n        for (uint j = 0; j < games[_playerAddress].dealerCards.length; j++) {\r\n        \tif (card == games[_playerAddress].dealerCards[j]) {\r\n        \t\tcardAlreadyDrawn = true;\r\n        \t}\r\n        }\r\n\r\n        if (!cardAlreadyDrawn) {\r\n\t        if (drawIsForPlayer[qId]) {\r\n\t        \tgames[_playerAddress].playerCards.push(card);\r\n\t        \tgames[_playerAddress].playerPts += cardValues[card % 13];\r\n\r\n\t        \tif (card % 13 == 0) {\r\n\t        \t\tgames[_playerAddress].playerAces++;\r\n\t        \t}\r\n\r\n\t        \tif (games[_playerAddress].playerPts > 21 && games[drawRequests[qId]].playerAces > 0) {\r\n\t        \t\tgames[_playerAddress].playerPts -= 10;\r\n\t        \t\tgames[_playerAddress].playerAces--;\r\n\t        \t}\r\n\r\n\t        \temit cardDrawn(_playerAddress, card, true);\r\n\r\n\t        \tif (games[_playerAddress].playerPts > 21) {\r\n\t        \t\tresolveGame(_playerAddress, false, false);\r\n\t        \t}\r\n\t        } else {\r\n\t        \tgames[_playerAddress].dealerCards.push(card);\r\n\t        \tgames[_playerAddress].dealerPts += cardValues[card % 13];\r\n\r\n\t        \tif (card % 13 == 0) {\r\n\t        \t\tgames[_playerAddress].dealerAces++;\r\n\t        \t}\r\n\r\n\t        \tif (games[_playerAddress].dealerPts > 21 && games[_playerAddress].dealerAces > 0) {\r\n\t        \t\tgames[_playerAddress].dealerPts -= 10;\r\n\t        \t\tgames[_playerAddress].dealerAces--;\r\n\t        \t}\r\n\r\n\t        \temit cardDrawn(_playerAddress, card, false);\r\n\t        \t//if player stands dealer will draw until he goes over 17\r\n\t        \tif (games[_playerAddress].playerStand && games[_playerAddress].dealerPts < 17) {\r\n\t        \t\tdrawCard(_playerAddress, drawIsForPlayer[qId]);\r\n\t        \t}\r\n\r\n\t        \tif (games[_playerAddress].dealerPts > 21) {\r\n\t        \t\tresolveGame(_playerAddress, true, false);\r\n\t        \t}\r\n\t        }\r\n\t    } else {\r\n\t    \tdrawCard(_playerAddress, drawIsForPlayer[qId]);\r\n\t    }\r\n   }\r\n}\r\n\r\n\r\n\r\n//Blackjack.deployed().then(function(i){app = i})\r\n\r\n//Blackjack.deployed().then(c => c.send(web3.toWei(1, \"ether\"), {from: web3.eth.accounts[1]}).then(tx => {console.log(tx.tx); tx.logs.length && console.log(tx.logs[0].event, tx.logs[0].args)}))\r\n\r\n//Blackjack.deployed().then(c => {c.send(web3.toWei(5, \"ether\"), {from: web3.eth.accounts[0]}).then(tx => {}); app=c;})\r\n\r\n//app.startGame({from:web3.eth.accounts[0], value: web3.toWei(1, \"ether\")});\r\n\r\n//app.hit({from: web3.eth.accounts[0]})\r\n\r\n//app.hit({from})\r\n\r\n//web3.eth.getBalance(web3.eth.accounts[0])\r\n\r\n//app.stand({from: web3.eth.accounts[0]})\r\n\r\n//app.games(web3.eth.accounts[0])\r\n\r\n",
  "sourcePath": "E:\\ethereum\\blackjack\\contracts\\Blackjack.sol",
  "compiler": {
    "name": "solc",
    "version": "0.4.23+commit.124ca40d.Emscripten.clang"
  },
  "schemaVersion": "2.0.0",
  "updatedAt": "2018-04-29T12:27:10.404Z"
}